:100000000C941D040C944E040C944E040C944E0459
:100010000C944E040C944E040C944E040C944E0418
:100020000C944E040C944E040C944E040C944E0408
:100030000C944E040C944E040C944E040C944E04F8
:100040000C944E040C944E040C944E040C944E04E8
:100050000C944E040C944E040C944E040C942C18E6
:100060000C944E040C94A0180C9476180C944E0426
:100070000C944E040C944E040C944E040C944E04B8
:100080000C944E040C944E040C944E040C944E04A8
:100090000C944E040C944E040C944E040C94D618FC
:1000A0000C944E040C944E040C944E040C944E0488
:1000B0000C944E040C944E040C944E040C944E0478
:1000C0000C944E040C944E040C944E040C944E0468
:1000D0000C944E040C944E040C944E040C944E0458
:1000E0000C944E040C94A6040C94B4050C94AD0B23
:1000F0000C94B3110C94240F0C94A0050C94F619D5
:100100000C9464050C94AC040C94B2080C94200A72
:100110000C9435130C94C50E0C94F30D0C94C2057D
:100120000C94A10A0C949F100C949B040C94A407AB
:100130000C94B6040C944B110C940A0B0C94BA0456
:100140000C94A3040C949F040C94D2040C94970474
:100150000C9446120C94FA050C94BE040C94910570
:100160000C943C0B0C9447060C94D6040C94391355
:100170000C943D130C94CC040C94BD110C949C0F66
:100180000C9494090C94C8040C9447120C946315B5
:100190000C9485040C9480040C94C4040C94610A9F
:1001A0000C94B0040C942309EF03038002CF0300E6
:1001B000C130ED0464031281E803850078CB053972
:1001C0002C003402F70120EA020000C00123C10123
:1001D00010C5023E28C701863601483701003A01A2
:1001E00055B1020018B603088227F201002601016A
:1001F000E00F0F312B0C0E084EF1370710030E09DC
:1002000000E10F000E1403110731C148080F0C3133
:10021000360F118029800000000000003E5B4F5B1C
:100220003E3E6B4F6B3E1C3E7C3E1C183C7E3C1899
:100230001C577D571C1C5E7F5E1C00183C1800FF7D
:10024000E7C3E7FF0018241800FFE7DBE7FF3048AB
:100250003A060E2629792926407F050507407F05A5
:10026000253F5A3CE73C5A7F3E1C1C08081C1C3E9C
:100270007F14227F22145F5F005F5F06097F017F8A
:10028000006689956A606060606094A2FFA294082D
:10029000047E040810207E201008082A1C08081C70
:1002A0002A08081E101010100C1E0C1E0C30383EB0
:1002B0003830060E3E0E06000000000000005F0011
:1002C000000007000700147F147F14242A7F2A12DD
:1002D00023130864623649562050000807030000C3
:1002E0001C2241000041221C002A1C7F1C2A0808F5
:1002F0003E08080080703000080808080800006008
:10030000600020100804023E5149453E00427F40F3
:100310000072494949462141494D331814127F1052
:1003200027454545393C4A4949314121110907369C
:1003300049494936464949291E0000140000004039
:100340003400000008142241141414141400412233
:10035000140802015909063E415D594E7C121112E2
:100360007C7F494949363E414141227F4141413EDE
:100370007F494949417F090909013E414151737F44
:100380000808087F00417F41002040413F017F086D
:100390001422417F404040407F021C027F7F0408BE
:1003A000107F3E4141413E7F090909063E415121EE
:1003B0005E7F09192946264949493203017F010315
:1003C0003F4040403F1F2040201F3F4038403F6398
:1003D0001408146303047804036159494D43007FF2
:1003E0004141410204081020004141417F040201C3
:1003F0000204404040404000030708002054547865
:10040000407F284444383844444428384444287FB2
:10041000385454541800087E090218A4A49C787F0C
:100420000804047800447D40002040403D007F10D7
:1004300028440000417F40007C047804787C080454
:1004400004783844444438FC182424181824241808
:10045000FC7C08040408485454542404043F4424F5
:100460003C4040207C1C2040201C3C4030403C4410
:10047000281028444C9090907C4464544C440008CC
:1004800036410000007700000041360800020102FA
:1004900004023C2623263C1EA1A161123A404020C2
:1004A0007A3854545559215555794122545478423B
:1004B000215554784020545579400C1E52721239FF
:1004C00055555559395454545939555454580000B8
:1004D000457C410002457D420001457C407D121172
:1004E000127DF0282528F07C545545002054547C7A
:1004F000547C0A097F4932494949323A4444443AD2
:10050000324A4848303A4141217A3A424020780004
:100510009DA0A07D3D4242423D3D4040403D3C24A7
:10052000FF2424487E4943662B2FFC2F2BFF0929EB
:10053000F620C0887E090320545479410000447D90
:10054000413048484A32384040227A007A0A0A72DA
:100550007D0D19317D2629292F2826292929263084
:10056000484D4020380808080808080808382F10A7
:10057000C8ACBA2F102834FA00007B000008142AF7
:10058000142222142A14085500550055AA55AA55BC
:10059000AAFF55FF55FF000000FF00101010FF00DC
:1005A000141414FF001010FF00FF1010F010F014CE
:1005B0001414FC001414F700FF0000FF00FF1414D3
:1005C000F404FC141417101F10101F101F1414141F
:1005D0001F00101010F0000000001F101010101F5E
:1005E00010101010F010000000FF1010101010106C
:1005F000101010FF10000000FF140000FF00FF00AB
:10060000001F10170000FC04F41414171017141422
:10061000F404F40000FF00F714141414141414F775
:1006200000F7141414171410101F101F141414F4CE
:10063000141010F010F000001F101F0000001F1415
:10064000000000FC140000F010F01010FF10FF1468
:100650001414FF141010101F00000000F010FFFF12
:10066000FFFFFFF0F0F0F0F0FFFFFF0000000000E0
:10067000FFFF0F0F0F0F0F3844443844FC4A4A4A1B
:10068000347E02020606027E027E02635549416301
:100690003844443C04407E201E2006027E0202991B
:1006A000A5E7A5991C2A492A1C4C7201724C304AB4
:1006B0004D4D303048784830BC625A463D3E49493D
:1006C00049007E0101017E2A2A2A2A2A44445F44E5
:1006D0004440514A444040444A51400000FF010315
:1006E000E080FF000008086B6B08361236243606DF
:1006F0000F090F060000181800000010100030400D
:10070000FF0101001F01011E00191D1712003C3CD2
:100710003C3C000000000000002100240027002ACB
:10072000002D003000330001010000040107010A20
:100730000100000A0B02090C0D0E0807030401005A
:1007400000000000000000000000000000000000A9
:100750000000000000000000000000000012111066
:100760000000000000000000000000000000000089
:1007700000000000000000000020002300260029E7
:10078000002C002F003200000100000301060109C7
:100790000101021020200808102040102040800293
:1007A00001020108040201010204081020408080B7
:1007B000402010080402018004020180402010083B
:1007C0000402010804020101020408102040800113
:1007D0000204081020408000002200250028002B81
:1007E000002E003100340002010000050108010B59
:1007F0000105050505070508080808020202020AA6
:100800000A080804040404010101010101010103B3
:1008100003030303030303040707070C0C0C0C0C6E
:100820000C0C0C0202020206060606060606060B61
:100830000B0B0B0B0B0B0B00F61911241FBECFEF8C
:10084000D1E2DEBFCDBF00E00CBF24E0AEE6B3E0F6
:1008500001C01D92AD3CB207E1F713E0A0E0B2E0A9
:10086000EAE8FBE300E00BBF02C007900D92AE3652
:10087000B107D9F714E0CDE1D4E000E006C021973C
:100880000109802FFE010E94911BCC31D10780E02D
:100890000807A9F70E940D1B0C94C31D0C940000BF
:1008A000282F30E0F901EF5CF84F9491F901EF56F1
:1008B000F84F44912F50384FF9012491222309F425
:1008C00035C0992311F191509231F8F4E92FF0E0FD
:1008D0008827E259FB4F8F4F0C94911B9F04A30470
:1008E000800497049B048504A604AC04B004B604F9
:1008F000BA04BE04C404C8048504CC04D204D604DB
:10090000809180008F7780938000E22FF0E0EE0FDF
:10091000FF1FE952F84FA591B4918FB7F894EC916D
:10092000611148C040954E234C938FBF089580912C
:1009300080008F7DE8CF80918000877FE4CF84B5F1
:100940008F7784BDE2CF84B58F7DFBCF8091B000DF
:100950008F778093B000D9CF8091B0008F7DF9CF91
:10096000809190008F7780939000CFCF80919000FE
:100970008F7DF9CF80919000877FF5CF8091A00087
:100980008F778093A000C1CF8091A0008F7DF9CF99
:100990008091A000877FF5CF809120018F77809391
:1009A0002001B3CF809120018F7DF9CF809120016C
:1009B000877FF5CF4E2BB8CFCF93DF9390E0FC012C
:1009C000EF56F84F24918F50984FFC018491882363
:1009D000D1F090E0880F991FFC01E95EF84FA591D6
:1009E000B491FC01E952F84FC591D49161110EC048
:1009F0009FB7F8948C91E22FE0958E238C932881F9
:100A0000E223E8839FBFDF91CF9108958FB7F894D9
:100A1000EC91E22BEC938FBFF6CF3FB7F894809127
:100A2000E5039091E603A091E703B091E80326B5B2
:100A3000A89B05C02F3F19F00196A11DB11D3FBF16
:100A4000BA2FA92F982F8827BC01CD01620F711DE5
:100A5000811D911D42E0660F771F881F991F4A95DF
:100A6000D1F708958F929F92AF92BF92CF92DF926B
:100A7000EF92FF924B015C010E940D056B017C011E
:100A80000E940D056C197D098E099F09683E73400F
:100A900081059105A8F321E0821A9108A108B10807
:100AA00088EEC80E83E0D81EE11CF11C811491046D
:100AB000A104B10429F7FF90EF90DF90CF90BF9091
:100AC000AF909F908F900895AF92BF92CF92DF9298
:100AD000EF92FF920F931F93CF93DF936C017B01F3
:100AE0008B01040F151FEB015E01AE18BF08C01784
:100AF000D10759F06991D601ED91FC910190F081F7
:100B0000E02DC6011995892B79F7C501DF91CF91A9
:100B10001F910F91FF90EF90DF90CF90BF90AF901B
:100B20000895FC01538D448D252F30E0842F90E0F3
:100B3000821B930B541710F0CF96089501970895D8
:100B4000FC01918D828D981761F0A28DAE0FBF2FA1
:100B5000B11D5D968C91928D9F5F9F73928F90E0F7
:100B600008958FEF9FEF0895FC01918D828D981766
:100B700031F0828DE80FF11D858D90E008958FEFA3
:100B80009FEF0895FC01918D228D892F90E0805C6C
:100B90009F4F821B91098F739927089589EE93E0E7
:100BA0000E94C20521E0892B09F420E0822F0895DC
:100BB000FC01A48DA80FB92FB11DA35ABF4F2C91D2
:100BC000848D90E001968F739927848FA689B789C9
:100BD0002C93A089B1898C91837080648C93938DC0
:100BE000848D981306C00288F389E02D80818F7D63
:100BF00080830895EF92FF920F931F93CF93DF931B
:100C0000EC0181E0888F9B8D8C8D98131AC0E88948
:100C1000F989808185FF15C09FB7F894EE89FF8917
:100C20006083E889F98980818370806480839FBFB5
:100C300081E090E0DF91CF911F910F91FF90EF90B5
:100C40000895F62E0B8D10E00F5F1F4F0F731127C5
:100C5000E02E8C8D8E110CC00FB607FCFACFE88900
:100C6000F989808185FFF5CFCE010E94D805F1CFAB
:100C7000EB8DEC0FFD2FF11DE35AFF4FF0829FB774
:100C8000F8940B8FEA89FB8980818062CFCFCF9364
:100C9000DF93EC01888D8823B9F0AA89BB89E889A4
:100CA000F9898C9185FD03C0808186FD0DC00FB64A
:100CB00007FCF7CF8C9185FFF2CF808185FFEDCFC8
:100CC000CE010E94D805E9CFDF91CF91089580E051
:100CD00090E0892B29F00E94CE0581110E9400002E
:100CE00080E090E0892B49F080E090E0892B29F0AA
:100CF0000E94000081110E94000080E090E0892B9A
:100D000049F080E090E0892B29F00E9400008111D9
:100D10000E94000080E090E0892B49F080E090E0A4
:100D2000892B29F00E94000081110C940000089585
:100D300020919603260F3327331F21323105ECF41F
:100D40002091BA03FC0190E080E0243069F082E059
:100D50000895A09196032191AC014A585C4FA40FCD
:100D6000B52FB11D2C930196861798F380919603A9
:100D7000680F6093960380E0089581E008950895D8
:100D80008FEF9FEF08958FEF9FEF089580916F038E
:100D900090E09195819591090895CF93DF93CB01D0
:100DA000EA01642F0E949806CE01DF91CF91089549
:100DB000CF93DF931F92CDB7DEB7698361E0CE0199
:100DC00001960E94980681E090E00F90DF91CF910C
:100DD0000895FC01A5A1B6A18C9192A589238C93BD
:100DE000A5A1B6A18C9191A5892B8C9308950F9301
:100DF0001F93CF93DF93EC018B018DA981110DC05F
:100E00001EBD0DB407FEFDCF0EBD0DB407FEFDCF18
:100E1000DF91CF911F910F9108958130E9F480E126
:100E2000E9A1FAA1908117FF14C02DA1922B908304
:100E3000EBA1FCA190812FA1922B9083EBA1FCA1AF
:100E4000908128A592239083000F111F815041F7B4
:100E5000DFCF2EA19223EBCFEF8DF8A11083CE012F
:100E60000E94E906EF8DF8A10083CE01DF91CF91BA
:100E70001F910F910C94E906FC0185A9811105C011
:100E80006EBD0DB407FEFDCF08958130E1F488E01A
:100E9000A1A1B2A19C9167FF13C025A1922B9C93A5
:100EA000A3A1B4A19C9127A1922B9C93660FA3A10F
:100EB000B4A19C9120A592239C93815049F7089559
:100EC00026A19223ECCFA78DB0A16C93CF010C94F7
:100ED000E906CF93DF93EC01ED8DFE8D80819CA917
:100EE00089238083CE010E943C07ED8DFE8D808199
:100EF0009BA9892B8083DF91CF910895FC0185A95F
:100F0000811104C091A182A19CBD8DBD08951F9344
:100F1000CF93DF93EC01162FE881F9810284F385EA
:100F2000E02D1995112371F06DADCE010E94690776
:100F3000E881F9810688F789E02DCE01DF91CF9114
:100F40001F9119946EADF1CFAF92BF92CF92DF9205
:100F5000EF92FF920F931F93CF93DF93EC0177FDF6
:100F600038C088859985681779079CF557FD31C089
:100F70008A859B854817590764F569017A015B01E9
:100F8000E881F9810284F385E02DCE011995E8818D
:100F9000F98102A4F3A5E02D01E010E021E030E0AA
:100FA000A701B501CE011995B601CE010E94F70641
:100FB000E881F9810688F789E02DCE01DF91CF9194
:100FC0001F910F91FF90EF90DF90CF90BF90AF9067
:100FD0001994DF91CF911F910F91FF90EF90DF90C7
:100FE000CF90BF90AF9008958F929F92AF92BF9293
:100FF000CF92DF92EF92FF920F931F93CF93DF93E5
:10100000EC0149015701E881F98102A4F3A5E02D23
:1010100019959401D8010E94991B6B017C01C114A0
:10102000D104E104F10409F490C08DA9811115C027
:1010300081E0C81AD108E108F1088FEFC816D80678
:10104000E806F80609F481C0BEBC0DB407FEFDCF6A
:10105000AEBC0DB407FEFDCFEBCF813009F045C02B
:1010600081E0C81AD108E108F1088FEFC816D80648
:10107000E806F80609F469C09B2D88E0E9A1FAA109
:10108000208197FF2CC03DA1232B2083EBA1FCA145
:1010900020813FA1232B2083EBA1FCA1208138A537
:1010A00023232083990F815049F79A2D88E0E9A1E5
:1010B000FAA1208197FF16C03DA1232B2083EBA12D
:1010C000FCA120813FA1232B2083EBA1FCA1208147
:1010D00038A523232083990F815049F7C1CF3EA122
:1010E0002323D3CF3EA12323E9CFBA1016C0CC0CC3
:1010F000DD1CEE1CFF1CEF8DF8A1B08281E0C81A48
:10110000D108E108F1088FEFC816D806E806F806FE
:10111000E1F0CE010E94E906F1CF81E0C81AD108C2
:10112000E108F1088FEFC816D806E806F80669F05E
:10113000EF8DF8A1B082CE010E94E906EF8DF8A1F3
:10114000A082CE010E94E906E8CFDF91CF911F91E6
:101150000F91FF90EF90DF90CF90BF90AF909F9056
:101160008F9008958F929F92AF92BF92CF92DF920D
:10117000EF92FF920F931F93CF93DF935C014B018C
:101180006A01E90177FD52C0DC0118968D919C91AE
:10119000681779070CF04AC0209709F447C037FF59
:1011A00007C0C9010196C80ED91ED195C195D109B4
:1011B000F50182859385C816D906C4F5A6014C0FA2
:1011C0005D1F9A012150310937FD30C0D7FE03C0A1
:1011D000EA01D12CC12C281739071CF0EC01CC19DD
:1011E000DD09D501ED91FC910284F385E02DC50167
:1011F000199578018E0121E030E0A601B401C50106
:101200000E94F407D501ED91FC910688F789E02D45
:10121000C501DF91CF911F910F91FF90EF90DF906B
:10122000CF90BF90AF909F908F901994DF91CF9106
:101230001F910F91FF90EF90DF90CF90BF90AF90F4
:101240009F908F9008958F929F92AF92BF92CF926E
:10125000DF92EF92FF920F931F93CF93DF935C0186
:101260006B014A01E90157FD52C0DC011A968D91CC
:101270009C91481759070CF04AC0209709F447C0C1
:1012800037FF07C0C9010196C80ED91ED195C19577
:10129000D109F50180859185C816D906C4F5A60146
:1012A0004C0F5D1F9A012150310937FD30C0D7FE28
:1012B00003C0EA01D12CC12C281739071CF0EC011E
:1012C000CC19DD09D501ED91FC910284F385E02D67
:1012D000C5011995780101E010E09E01A401B60155
:1012E000C5010E94F407D501ED91FC910688F789AC
:1012F000E02DC501DF91CF911F910F91FF90EF90ED
:10130000DF90CF90BF90AF909F908F901994DF9116
:10131000CF911F910F91FF90EF90DF90CF90BF90F2
:10132000AF909F908F9008958F929F92AF92BF92AF
:10133000CF92DF92EF92FF920F931F93CF93DF93A1
:101340004C016B015A01E901209709F46CC00115A9
:10135000110509F468C037FF07C0C9010196C80E1E
:10136000D91ED195C195D109F401A085B185CA16C0
:10137000DB060CF058C017FF07C0C8010196A80E85
:10138000B91E119501951109F40182859385A8165E
:10139000B9060CF048C0F601EC0FFD1FAF0141503B
:1013A000510957FD40C0B501600F711F9B012150CD
:1013B000310937FD38C0D7FE03C0EF01D12CC12C55
:1013C000B7FE03C08B01B12CA12C4A175B071CF0A0
:1013D000ED01CC19DD09281739071CF08C010A1919
:1013E0001B09D401ED91FC910284F385E02DC40129
:1013F00019959E01A501B601C4010E94F407D4010C
:10140000ED91FC910688F789E02DC401DF91CF9121
:101410001F910F91FF90EF90DF90CF90BF90AF9012
:101420009F908F901994DF91CF911F910F91FF9012
:10143000EF90DF90CF90BF90AF909F908F900895E6
:10144000EF92FF920F931F93CF93DF9377FD32C0FC
:10145000DC011896ED91FC916E177F075CF5211564
:10146000310541F137FF07C0F90131964E0F5F1F7B
:10147000319521953109DC011A96ED91FC914E17B9
:101480005F07C4F4EA01C20FD31FDE011197B7FD55
:1014900011C057FF03C09E0150E040E0AE17BF07E8
:1014A0001CF09F01241B350B7801890121E030E0FD
:1014B0000E94F407DF91CF911F910F91FF90EF9061
:1014C0000895EF92FF920F931F93CF93DF9357FDF1
:1014D00031C0DC011A96ED91FC914E175F0754F56F
:1014E0002115310539F137FF07C0F90131966E0F2B
:1014F0007F1F319521953109DC011896ED91FC9102
:101500006E177F07BCF4EB01C20FD31FDE011197EA
:10151000B7FD10C077FF03C09E0170E060E0AE171A
:10152000BF071CF09F01261B370B780101E010E07C
:101530000E94F407DF91CF911F910F91FF90EF90E0
:1015400008958F929F92AF92BF92CF92DF92EF92C7
:10155000FF920F931F93CF93DF934701211531051E
:1015600009F44BC00115110509F447C037FF07C046
:10157000F90131966E0F7F1F319521953109DC01FC
:101580001896AD90BC906A157B05BCF517FF07C097
:10159000F80131964E0F5F1F119501951109DC017D
:1015A0001A96ED91FC914E175F073CF56B01C20E48
:1015B000D31EE6012197D7FD20C07A01E00EF11E6F
:1015C000D7011197B7FD19C077FF03C0960170E0EE
:1015D00060E057FF03C0870150E040E0CA15DB051B
:1015E0001CF09501261B370BAE17BF071CF08F01AF
:1015F000041B150B74010E94F407DF91CF911F911A
:101600000F91FF90EF90DF90CF90BF90AF909F90A1
:101610008F900895EF92FF920F931F93CF93DF93D4
:10162000EC0177FD22C08885998568177907ECF46D
:1016300057FD1BC08A859B8548175907B4F479016B
:10164000E881F98102A4F3A5E02D01E010E021E09A
:1016500030E0CE011995B701CE01DF91CF911F91F6
:101660000F91FF90EF900C94F706DF91CF911F91AF
:101670000F91FF90EF900895CF93DF93EC010E94BC
:101680007E078FA987FD06C0EB8DFC8D80819AA90E
:1016900089238083DF91CF9108950895AF92BF92FF
:1016A000CF92DF92EF92FF920F931F93CF93DF932E
:1016B000EC01E62E8A01A22E0E947E078FA987FDEB
:1016C00006C0EB8DFC8D80819AA989238083ED8DE6
:1016D000FE8D80819CA9892380836E2DCE010E947E
:1016E0003C07ED8DFE8D80819BA9892B8083D12CB9
:1016F000C12CB12CCA14DB04E4F48DA9780182302A
:1017000079F488A9882361F0F801619171917F01D2
:10171000CE010E94F706FFEFCF1ADF0A8701EACF5A
:10172000FFEFEF1AFF0AF8016491CE010E943C0717
:10173000F2CF8FA987FD06C0EB8DFC8D808199A922
:10174000892B8083DF91CF911F910F91FF90EF90B4
:10175000DF90CF90BF90AF900895FC0187A987FDDF
:1017600006C0A38DB48D9C9181A9892B8C9308957B
:101770000895FC016370668B848195812681378191
:10178000613039F0633029F0918780873387228771
:101790000895318720879387828708952F923F92FB
:1017A0004F925F926F927F928F929F92AF92BF9271
:1017B000CF92DF92EF92FF920F931F93CF93DF931D
:1017C000CDB7DEB76A970FB6F894DEBF0FBECDBFB8
:1017D0009A8F898F7A8369834A01D22E18870F8363
:1017E0003701BC2CDC0159962D913C915A9721155B
:1017F000310509F015C118968D919C9119976817BC
:1018000079070CF0D7C11A968D919C91481759070A
:101810000CF0D0C14C2C512CB6E0CB9E600D711D4C
:1018200011247C876B87161617060CF0C3C1EA2DAE
:10183000F0E0FA87E98793E0EE0FFF1F9A95E1F752
:10184000F88BEF87CF01840F951F181619060CF03F
:10185000B1C1A98DBA8D58968C91811104C0BFEA8F
:10186000BD1508F4D394A98DBA8DED91FC91119713
:101870000284F385E02DCD011995B5E0DB9EC00112
:101880001124E981FA81FC83EB83312C212C9C010A
:10189000295E3D4F388F2F8B4A2D50E05E8B4D8B4C
:1018A000EF89F88DE20DF31D44919E828D82D12C3B
:1018B000C12C69817A81620D731D7A8B698B842FAB
:1018C00090E09C8B8B8BE98DFA8DA081B18140FFDC
:1018D00082C0F1E0BF126FC0AF126DC01C96ED91D7
:1018E000FC912F813885A4014C0D5D1D69897A8991
:1018F000898D9A8D1995EB89FC89F595E7954E2F81
:101900005FEFC51AD50A6D817E818D899E89680F2A
:10191000791F7E836D8398E0C916D10481F6AFEFFD
:101920002A1A3A0AEB81FC81E40DF51DFC83EB8356
:10193000F5E02F16310409F0B3CF2F813885261535
:101940003705B9F0A98DBA8DED91FC91B1E0BB12CC
:1019500057C0AB1255C069817A816B5F7F4F008899
:10196000F189E02D830128E030E0A401898D9A8D72
:101970001995A98DBA8DED91FC9111970688F7897B
:10198000E02DCD016A960FB6F894DEBF0FBECDBF35
:10199000DF91CF911F910F91FF90EF90DF90CF904B
:1019A000BF90AF909F908F907F906F905F904F907F
:1019B0003F902F9019941E96ED91FC91EF80F88442
:1019C00009851A8592014D815E816B817C81898DAB
:1019D0009A8D199590CF2F8138852615370509F4F2
:1019E0008ACF31E0B31207C0A31205C01C96ED9157
:1019F000FC91930178CF1E96ED91FC917301E0CF9D
:101A00006B857C85641975090684F785E02D730163
:101A10000F8518899201A401898D9A8D1995A9CFF6
:101A2000F90134969491329745915491D91AB7E0BF
:101A3000DB9E400D511D1124F901259134913C8B01
:101A40002B8BFA0125903490FA01329674903196DE
:101A50003491398B329664903196449041E04C1524
:101A600018F04A1508F07FC0662D062C000C770B85
:101A70007C836B83842D042C000C990B9E838D83B7
:101A8000A98DBA8DED91FC9111970284F385E02D1B
:101A9000CD011995512CD12CC12CEA2DF0E0FA87FB
:101AA000E9872B2D30E03C872B87A401440D511D85
:101AB00047FC5A95588F4F8B69817A81660D711D4D
:101AC00067FC7A957E876D877989C71608F051CFB4
:101AD0002C2D30E04D815E81420F531FA985BA85C0
:101AE0004A9FC0014B9F900D5A9F900D1124FC01FD
:101AF000E80DF91DF88BEF87852D612C4F89588DE6
:101B0000420F531F5E8B4D8B671408F050C0442466
:101B10004394480E877041F4C1010196EB89FC891A
:101B2000E20DF31DD4901C01D7FE19C0A98DBA8D0A
:101B3000ED91FC91662D70E0B1E0BB1219C0AB12C3
:101B400017C02D853E85620F731F0484F585E02D37
:101B50002F8138854D895E89898D9A8D1995DD0C87
:101B60006394842DD1CF1E821D821C821B8288CF5C
:101B70004B815C81640F751FAB85BC856A9FC0017A
:101B80006B9F900D7A9F900D112469817A81680F67
:101B9000791F0684F785E02DEF80F88409851A8582
:101BA0009D014F855889898D9A8D1995D8CF570CED
:101BB000C3948ACF6A960FB6F894DEBF0FBECDBF2E
:101BC000DF91CF911F910F91FF90EF90DF90CF9019
:101BD000BF90AF909F908F907F906F905F904F904D
:101BE0003F902F9008958F929F92AF92CF92EF9255
:101BF000FF920F931F93CF93DF93EC01262F898DD4
:101C00009A8D009709F051C06A30D1F41D861C8668
:101C10008D8948E0849F900111248E859F85820FD5
:101C2000931F9F878E8781E090E0DF91CF911F9176
:101C30000F91FF90EF90CF90AF909F908F9008956D
:101C40006D3089F3CC88AD888F898823C1F08C856D
:101C50009D8536E0C39E800D911D112448855985D0
:101C60004817590764F44E855F851D861C8638E049
:101C7000A39EC0011124840F951F9F878E87EA8839
:101C8000FB88088919894E855F856C857D85CE0125
:101C90000E94CE0B2C898C859D8546E0249F800D6B
:101CA000911D11249D878C87BECF6A3069F41D86F3
:101CB0001C86FC013896E4912D898E859F85E29FD4
:101CC000800D911D1124ADCF6D3009F4ACCFFC0116
:101CD00034963491631708F4A6CF3296E491E61750
:101CE00008F4A1CFFC01329685909490462F431BB7
:101CF000342F47E0349F800C911C1124F40132965C
:101D000034913196E4913323A9F1EE2399F1CC88F3
:101D1000F4013596E491AD884F89442301F10E2EEC
:101D2000000CFF0BE30FF11DCE9EA001CF9E500DC6
:101D300011246C857D85460F571F6885798564174A
:101D400075076CF44E855F851D861C86FC013896F0
:101D5000E491AE9E400D511D11245F874E87EA88A5
:101D6000FB88088919894E855F856C857D85CE0144
:101D70000E94CE0BF4013496E4912C898C859D85CC
:101D8000E29F800D911D11248DCF6F927F928F92D3
:101D90009F92AF92BF92CF92DF92EF92FF920F93FA
:101DA0001F93CF93DF93EC016B015A013901480176
:101DB000E881F9810284F385E02D1995E881F981A4
:101DC0000288F389E02D87019301A501B601CE01B8
:101DD0001995A501480D591D41505109E881F98116
:101DE0000288F389E02D9301B601CE011995E881AF
:101DF000F9810088F189E02D9401A501B601CE0199
:101E00001995C60CD71CB60161507109E881F9819A
:101E10000088F189E02D9401A501CE011995E88192
:101E2000F9810688F789E02DCE01DF91CF911F91CE
:101E30000F91FF90EF90DF90CF90BF90AF909F9069
:101E40008F907F906F9019946F927F928F929F9254
:101E5000AF92BF92CF92DF92EF92FF920F931F93B8
:101E6000CF93DF935C01EB016A01490138018701DF
:101E7000DC01ED91FC916217730719F56416750684
:101E80002CF0962D872D3A01C92ED82E96012619B1
:101E900037092F5F3F4F048CF58DE02DA301BE0164
:101EA000C5011995DF91CF911F910F91FF90EF9090
:101EB000DF90CF90BF90AF909F908F907F906F906A
:101EC00008954615570591F42617370724F0892DF4
:101ED0004B01C22FD82F9E01281939092F5F3F4F80
:101EE000068CF78DE02DA601B401DACF0284F385CC
:101EF000E02D1995D501ED91FC910488F589E02D2F
:101F000083019401A601BE01C5011995D501ED918A
:101F1000FC910688F789E02DC501DF91CF911F91D3
:101F20000F91FF90EF90DF90CF90BF90AF909F9078
:101F30008F907F906F901994EF92FF920F931F9361
:101F4000DC011A960D911C911B9718962D913C91CE
:101F50001997ED91FC9100A0F1A1E02D7B0150E0DB
:101F600040E070E060E019951F910F91FF90EF90B5
:101F700008954F925F926F927F928F929F92AF924D
:101F8000BF92CF92DF92EF92FF920F931F93CF9366
:101F9000DF936C012B015A0139014801DC01ED91FD
:101FA000FC910284F385E02D1995E201640C751C07
:101FB000D601ED91FC91C615D7055CF40088F18936
:101FC000E02D87019401A501BE01C6011995219656
:101FD000EFCF0688F789E02DC601DF91CF911F91E1
:101FE0000F91FF90EF90DF90CF90BF90AF909F90B8
:101FF0008F907F906F905F904F9019948F929F92E7
:10200000AF92BF92CF92DF92EF92FF920F931F9306
:10201000CF93DF93EC015B014A016901E881F9810B
:102020000284F385E02D199595012C0D3D1D21505D
:102030003109E881F9810488F589E02D780184016E
:10204000A401B501CE011995E881F9810688F789C7
:10205000E02DCE01DF91CF911F910F91FF90EF9076
:10206000DF90CF90BF90AF909F908F9019948F92F8
:102070009F92AF92BF92CF92DF92EF92FF920F9317
:102080001F93CF93DF93EC015B014A016901780153
:10209000E881F9810284F385E02D1995C80CD91CDB
:1020A000860101501109E881F9810488F589E02D44
:1020B0009501A401B501CE011995E881F981068841
:1020C000F789E02DCE01DF91CF911F910F91FF9005
:1020D000EF90DF90CF90BF90AF909F908F9019942A
:1020E000EF92FF920F931F93DC01ED91FC9100A002
:1020F000F1A1E02D19951F910F91FF90EF90089598
:102100000F931F93DC01ED91FC91068CF78DE02D70
:1021100019951F910F9108950F931F93DC01ED9175
:10212000FC91048CF58DE02D19951F910F91089568
:10213000DC01ED91FC910084F185E02D19942F9242
:102140003F924F925F926F927F928F929F92AF9247
:10215000BF92CF92DF92EF92FF920F931F93CF9394
:10216000DF9300D000D0CDB7DEB73C016A013E83DB
:102170002D83FC82EB825801A41AB50AB7FE03C076
:10218000B194A194B1088D809E80861A970A97FE1B
:1021900003C09194819491088A149B045CF0902F61
:1021A000812F0D811E819D838E839C2D8D2D6B0132
:1021B000692F782F0C151D055CF09D818E817E8323
:1021C0006D83692F782F902F812F8601C92ED82EED
:1021D0001601201A310A2B012D813E81421A530A21
:1021E00057FE03C0519441945108710137FE03C05A
:1021F0003FEFE31AF30AF594E7948D819E818617E9
:1022000097075CF5A1E0B0E0BA83A983C016D106B8
:102210004CF1D301ED91FC910484F585E02D2B81E7
:102220003C81A8016D817E818A149B041CF04D8144
:102230005E81B801C3011995E418F508F7FE0AC0DC
:102240002D813E8189819A81280F391F3E832D83FC
:10225000E20CF31C0F5F1F4FD9CF2FEF3FEF3A83F4
:102260002983D4CF26960FB6F894DEBF0FBECDBF1C
:10227000DF91CF911F910F91FF90EF90DF90CF9062
:10228000BF90AF909F908F907F906F905F904F9096
:102290003F902F900895AF92BF92CF92DF92EF922E
:1022A000FF920F931F93CF93DF93EC015B016A01C1
:1022B000215031097901E60EF71E01501109040F72
:1022C000151F80910602909107028617970739F42F
:1022D00080910402909105028E159F05A1F06AE29B
:1022E000CE010E946907B501CE010E94F706B70131
:1022F000CE010E94F706B0920702A0920602F09269
:102300000502E092040280910202909103028C1572
:102310009D0539F480910002909101028017910788
:10232000A1F06BE2CE010E946907B601CE010E94C6
:10233000F706B801CE010E94F706D0920302C092C0
:10234000020210930102009300026CE2CE01DF91C1
:10235000CF911F910F91FF90EF90DF90CF90BF90A2
:10236000AF900C946907611106C060E220E050E074
:1023700040E00C944E0B61E2F9CF0F931F93CF9383
:10238000DF931F92CDB7DEB78C016370DC015696E8
:102390006C935697623009F468C0633009F46AC0E0
:1023A000613009F456C088E4898380EF90E0199683
:1023B0009C938E93189780E491E01B969C938E9348
:1023C0001A97C8010E947E07D801D7968C91D7979B
:1023D00087FD09C05B96ED91FC915C978081D29658
:1023E0009C9189238083D8015D96ED91FC915E9745
:1023F0008081D4969C918923808366E3C8010E94E2
:102400003C07D8015D96ED91FC915E978081D39653
:102410009C91D397892B8083D5968C91823061F1E2
:102420006981C8010E943C07D801D7968C91D79743
:1024300087FD09C05B96ED91FC915C978081D196F8
:102440009C91892B80830F90DF91CF911F910F91E9
:10245000089588E2898380E491E0F801918780877C
:1024600080EF90E093878287ACCF88E8898380EF04
:1024700090E09DCF88EEEECFF80180A9882381F20D
:1024800069817A81C8010E94F706CECF089590E055
:1024900080E008950E94AE1DEF92FF920F931F936C
:1024A000CF93DF93EC017B018A01888199810097AA
:1024B00029F02A813B812417350788F4B8016F5F22
:1024C0007F4F0E94CD1C009791F0998388831B83D6
:1024D0000A832C813D81232B11F4FC0110821D8382
:1024E0000C83B701888199810E94BC1D0CC0888132
:1024F0009981009711F00E94441C198218821D8254
:102500001C821B821A82CE01DF91CF911F910F9105
:10251000FF90EF900895CF93DF93EC01FB010F96AE
:1025200086179707B9F0608171816115710531F0E7
:1025300044815581DF91CF910C944C128F859889FD
:10254000009711F00E94441C188A1F861C8A1B8A5F
:102550001A8A198ADF91CF910895FB01019000201A
:10256000E9F73197AF01461B570BDC01ED91FC9168
:102570000280F381E02D1994CF93DF93BC0189EEA3
:1025800093E00E94AD12EC0160E572E089EE93E009
:102590000E94AD128C0F9D1FDF91CF910895EF9295
:1025A000FF920F931F93CF93DF938C0183E592E00B
:1025B0000E94BC12E80110E000E07E0188ECE80E09
:1025C000F11CF70180819181801791075CF0E991FE
:1025D000F991DE01AE59BF4F8D919C9119950F5F16
:1025E0001F4FEFCFDF91CF911F910F91FF90EF9091
:1025F0000895EF92FF920F931F93CF93DF937C0187
:1026000083E592E00E94BC128701D0E0C0E0D701D0
:1026100054968D919C918C179D0754F0D801ED91A3
:10262000FD918D0118968D919C9119952196EFCF72
:10263000DF91CF911F910F91FF90EF900895FC01D2
:10264000248935892430310564F42F5F3F4F358B61
:10265000248B220F331F280F391FF90171836083E8
:10266000089589E692E00C94BC128EEB92E00C94F3
:10267000BC1285ED92E00C94BC122F923F924F92C7
:102680005F926F927F928F929F92AF92BF92CF9202
:10269000DF92EF92FF920F931F93CF93DF93CDB70B
:1026A000DEB72E970FB6F894DEBF0FBECDBF9E8764
:1026B0008D878DED92E00E94BC12AD85BE8555964A
:1026C0008C91559781116EC1ED91FC911197C2804B
:1026D000D38018960C91189719961C9119971696F5
:1026E0002C91169717963C91179714964D915C91E3
:1026F000159712966D917C91D601ED91FC91AD8567
:10270000BE8556968D919C91009711F0019759F0D6
:10271000AD85BE851A96ED90FC9000A0F1A1E02D4C
:10272000C6011995D1C0180137FE03C0BFEF2B1A9F
:102730003B0A35942794790137FF03C02FEFE21A43
:10274000F20AF594E794C101840F951F98878F834F
:10275000D701A60FB71FBA83A9830284F385E02DA2
:10276000C60119959701220F331F2F5F3F4F4F81ED
:1027700058854E195F09D601ED91FC910088F189C9
:10278000E02D810169817A81C601199581E090E08F
:10279000FC01EE19FF09FC83EB83882799278E192A
:1027A0009F099C01220F331F3A872987712C612CC6
:1027B00081E090E09E838D83AF81B8851196BC87C0
:1027C000AB876E147F040CF077C0EB81FC8127018E
:1027D000F7FD0FC0F1E04F1A510829853A852E5FA9
:1027E0003F4F3A8729878B819C81820F931F9C835F
:1027F0008B839FEF691A790AAD81BE811296BE83E1
:10280000AD83EB81FC81EA0FFB1FFC83EB83461455
:1028100057043CF14201880C991CFFEF8F1A9F0A64
:10282000D601ED91FC910088F189E02D81019401A0
:10283000AF80B884A418B508A50169817A81660DB6
:10284000771DC6011995D601ED91FC910088F1899B
:10285000E02D9401A50169817A8166197709C60185
:102860001995E414F50431F169817A816E0D7F1DAB
:10287000D601ED91FC910088F189E02D81018D80D8
:102880009E80B2E08B1A91089401AB84BC84A61898
:10289000B708A501C601199569817A816E197F096A
:1028A000D601ED91FC910088F189E02D9401A501FC
:1028B000C6011995720185CFD601ED91FC9106886C
:1028C000F789E02DC6011995ED85FE8522813381BA
:1028D0004685838994890297642F70E0869FD00192
:1028E000879FB00D969FB00D11248AE08A9FF0015A
:1028F0008B9FF00D1124AD85BE8516968D919C9110
:102900008E179F0730F08E1B9F0B96958795280F8B
:10291000391FED85FE858085918597FD01969595FA
:102920008795AD85BE851496ED91FC9115978E0F18
:102930009F1F5BEF5603F001579FF00D11248E0F80
:102940009F1FED91FC911197E280F3801C966D9191
:102950007C91F701738B628B718B608B411101C08D
:1029600041E0D70154964C93549755964C93559704
:102970001D963C932E931C971F969C938E931E97A7
:10298000ED85FE854389548967857089ED91FC91B9
:102990000280F381E02DC701199560E572E0C7015F
:1029A0000E94AD128FEF92E02E960FB6F894DEBF24
:1029B0000FBECDBFDF91CF911F910F91FF90EF9090
:1029C000DF90CF90BF90AF909F908F907F906F904F
:1029D0005F904F903F902F900C94BC121F93CF9319
:1029E000DF9385ED8093BC00809172039091730317
:1029F000A0917403B09175030796A11DB11D23E04A
:102A0000B695A795979587952A95D1F72091BC0003
:102A100024FD03C01092BA0352C04091720350913A
:102A200073036091740370917503452B462B472BFC
:102A300069F30097A105B10541F02AE22A95F1F763
:102A400000C00197A109B109E1CF80917103C1E0F4
:102A5000C0937003882399F1D091B8001091BA0007
:102A60008091BC008A7B8093BC0060E084E10E947E
:102A7000500460E085E10E9450041092BA03C093B4
:102A8000BC031092BB0361E084E10E94500461E04A
:102A900085E10E9450048091B9008E7F8093B90037
:102AA0008091B9008D7F8093B90088E48093B8004D
:102AB00085E48093BC001093BA00D093B800DF91F6
:102AC000CF911F910895CF92DF92EF92FF920F93D3
:102AD0001F93CF93DF93EC016A017B01C114D104F2
:102AE000E104F10431F4C12C42E1D42E4AE7E42E92
:102AF000F12C8FA987FD07C061E00E94DC0461E032
:102B00008FA90E94500461E088AD0E94DC0461E05E
:102B100088AD0E9450048DA98111A3C040E052E10C
:102B20006AE770E0C416D506E606F70640F4769527
:102B30006795579547958F5F8630A1F787E0982F67
:102B4000906A969599A3809581708AA31BA21CA276
:102B50001DA21EA21FB7F89480916E03811127C099
:102B6000E6E2F8E08491E6ECF7E09491E82FF0E0FB
:102B7000EE0FFF1FE95EF84FA591B491EC91E923A8
:102B800021F461E085E30E94500461E085E30E9446
:102B9000DC048CB580618CBD8CB580648CBD61E03B
:102BA00084E30E94DC0461E083E30E94DC04809102
:102BB0006E038F5F80936E031FBF8EA987FD21C0B8
:102BC00061E00E94DC0461E08EA90E94500464E68A
:102BD00070E080E090E00E94320560E08EA90E94E3
:102BE000500464E670E080E090E00E94320561E00D
:102BF0008EA90E94500468EC70E080E090E00E9492
:102C000032058EA987FF0DC020E050E040E061E072
:102C1000CE010E944E0B66E970E080E090E00E94D9
:102C2000320508EA11E0C8010196F80164916623B3
:102C300009F463C00E5F1F4FFC01F490EF2CE89481
:102C4000E7F82E2DA801CE010E944E0B0E0D111D8E
:102C5000F7FEE9CF66E970E080E090E00E9432057F
:102C6000E2CF01EF17E0F12C8130B9F461E08AA5E1
:102C70000E94DC0460E08AA50E94500461E08CA5FB
:102C80000E94DC0460E08CA50E9450048BA587FDA7
:102C900094CF60E00E94DC0490CFF8018491E82F8B
:102CA000F0E0EE0FFF1FE952F84F859194912F8DC0
:102CB00038A12817390741F461E08F2D0E94DC0408
:102CC00060E08F2D0E945004F3940F5F1F4FF6E4D5
:102CD000FF12E3CF61E08EA50E94DC0461E08EA5C7
:102CE0000E9450048FA587FD68CF61E00E94DC043C
:102CF00061E08FA50E94500460CF80EF90E099873B
:102D0000888780E491E09B878A87DF91CF911F912C
:102D10000F91FF90EF90DF90CF900895CF92DF92C8
:102D2000EF92FF920F931F93CF93DF93CDB7DEB750
:102D3000CC5FD1090FB6F894DEBF0FBECDBFE091D6
:102D4000F903F091FA0382E08083E091F503F091BA
:102D5000F6031082E091F703F091F8038FEC808383
:102D600010920104E091FD03F091FE0386E0808360
:102D7000E091FB03F091FC03808180618083E0910E
:102D8000FB03F091FC03808188608083E091FB036A
:102D9000F091FC03808180688083E091FB03F091D7
:102DA000FC0380818F7D808340E050E0BA0186E89B
:102DB00094E00E94631561E086E894E00E94BD11F2
:102DC00060E078EF86E894E00E949C0FCC24CA94DF
:102DD000DC2CC753DF4FD982C882C95CD0407E014A
:102DE00049EFE40EF11CCE010196D70111969C9398
:102DF0008E9386E894E013969C938E9312978DE0C1
:102E000093E00E94BC128E0105531F4FF8011382FC
:102E100012821582148217821682118610861386FA
:102E20001286D586C4868BE08687108A1786128A1A
:102E3000118A148A138A50E040E062E572E0C8010A
:102E40000F960E944C12D80155961C925597579692
:102E50001C921E92569781E293E00E94BC12F801E8
:102E6000F182E082D701ED91FC91DF01A853BF4FC1
:102E70008D919C911197813391050CF0ADC09C010F
:102E80002F5F3F4F2D933C93880F991FE80FF91F39
:102E90008DE393E193838283EA59FF4F118300838B
:102EA000F701808191810E94CF128DE393E00E940F
:102EB000BC12D80113961C921E92129715961C9262
:102EC0001E92149780EE91E017969C938E9316971E
:102ED00080EA90E019969C938E9318978FEF9FEF5E
:102EE0001D969C938E931C9780E098EF1B969C9365
:102EF0008E931A97CD51DF4F19821882C35ED0404E
:102F0000CB51DF4F19821882C55ED040C951DF4FC7
:102F100019821882C75ED04045E050E06AE473E051
:102F2000CE018D519F4F0E944C12BE016D517F4FBB
:102F3000C8010E948B12CD51DF4F88819981C35EF9
:102F4000D040009711F00E94441C83E0F80186876E
:102F5000D7018D919C910E94CF1280E593E00E9451
:102F6000BC1285E593E00E94BC128FEF9FEFC95021
:102F7000DF4F99838883C75FD04069E373E1CE0157
:102F80008D519F4F0E941F13C950DF4F8881998137
:102F9000C75FD04030E020E0821793073CF1F90191
:102FA000EE0FFF1F43EE50E04C0F5D1FE40FF51FC7
:102FB0004081518149535341B1F4A9014817590740
:102FC00081F04F5F5F4F628173816193719362857E
:102FD000738571876087F2CF89E692E00E94BC1208
:102FE0005FCF0197D9CF2F5F3F4FD6CFC950DF4F6B
:102FF00099838883C75FD040CE018D519F4F0E9437
:10300000F91265E373E1CE018D519F4F0E941F13AA
:1030100069E373E1CE018D519F4F0E941F13CE01D2
:103020008D519F4F0E94F912D8011F968D919C914E
:10303000009711F00E94441CC450DF4F0FB6F89463
:10304000DEBF0FBECDBFDF91CF911F910F91FF90DB
:10305000EF90DF90CF9008951F920F920FB60F92CE
:1030600011242F933F938F939F93AF93BF9380919E
:10307000E1039091E203A091E303B091E403309166
:10308000E00323E0230F2D3758F50196A11DB11D54
:103090002093E0038093E1039093E203A093E30382
:1030A000B093E4038091E5039091E603A091E703D8
:1030B000B091E8030196A11DB11D8093E5039093A3
:1030C000E603A093E703B093E803BF91AF919F910C
:1030D0008F913F912F910F900FBE0F901F901895D9
:1030E00026E8230F0296A11DB11DD2CF1F920F9289
:1030F0000FB60F9211240BB60F922F933F934F935D
:103100005F936F937F938F939F93AF93BF93EF934F
:10311000FF9389EE93E00E94D805FF91EF91BF9154
:10312000AF919F918F917F916F915F914F913F915F
:103130002F910F900BBE0F900FBE0F901F90189500
:103140001F920F920FB60F9211240BB60F922F936E
:103150008F939F93EF93FF93E091F903F091FA031C
:103160008081E091FF03F091000482FD1DC09081F9
:10317000809102048F5F8F7320910304821741F0C6
:10318000E0910204F0E0E751FC4F958F8093020438
:10319000FF91EF919F918F912F910F900BBE0F9008
:1031A0000FBE0F901F9018958081F2CF1F920F9243
:1031B0000FB60F9211240BB60F922F933F934F939C
:1031C0005F936F937F938F939F93AF93BF93EF938F
:1031D000FF938091B900887F803609F44DC008F0D4
:1031E00040C0883209F4A7C028F5803109F49BC09B
:1031F000C8F4882309F4F7C0883009F494C0FF911B
:10320000EF91BF91AF919F918F917F916F915F915E
:103210004F913F912F910F900BBE0F900FBE0F90CB
:103220001F901895883109F486C0803241F7809349
:10323000B90314C0803409F49BC040F48033B9F35F
:103240008833E9F68093B90385ECAEC0803509F484
:1032500083C0883509F494C0883489F60E94EE143E
:10326000CECF883909F48AC038F5883729F050F470
:10327000883611F0803719F683E08093BA031092F4
:10328000B80355C0883809F479C0803919F08038FE
:1032900009F0B5CF8091B803803208F06FC0E0919B
:1032A000B80381E08E0F8093B8038091BB00F0E0FB
:1032B000E856FC4F80833BC0803B39F0D0F4803A25
:1032C00009F477C0883A09F09ACF84E08093BA0372
:1032D0001092970310929603F0E0E0E01995809128
:1032E000960381110FC081E08093960310927603BC
:1032F00009C0803C09F4A8CF883C09F4A5CF883BDD
:1033000009F07DCFE091970381E08E0F80939703C2
:10331000F0E0EA58FC4F80818093BB0090919703C6
:103320008091960329C08091DF038093BB0085ECD8
:103330008093BC0064CF9091DE038091DD039817E9
:1033400058F5E091DE0381E08E0F8093DE03F0E01C
:10335000E354FC4F8081E9CFE091DE0381E08E0FE2
:103360008093DE038091BB00F0E0E354FC4F808348
:103370009091DE038091DD039817C8F285E8D8CFDD
:10338000E091DE0381E08E0F8093DE038091BB002D
:10339000F0E0E354FC4F80838091BC0381115ECF49
:1033A00081E08093BB0384EA8093BC001092BA034F
:1033B00026CF85EC8093BC001092BA038091B803AD
:1033C000803230F4E091B803F0E0E856FC4F108210
:1033D0006091B80370E088E993E0F0E0E0E01995CF
:1033E0001092B8030CCF1092B90338CFE9EEF3E096
:1033F0001382128288EE93E0A0E0B0E0848395838C
:10340000A683B78382E192E09183808385EC90E08C
:103410009587848784EC90E09787868780EC90E09E
:10342000918B808B81EC90E0938B828B82EC90E08F
:10343000958B848B86EC90E0978B868B118E128E09
:10344000138E148EA6E8B4E013961C921E92129767
:1034500020EF30E015963C932E93149780E491E092
:1034600017969C938E93169719963C932E931897C4
:103470001B969C938E931A9756961C9256971D9660
:103480001C921E921C971F961C921E921E9781E002
:1034900055968C93559754968C9354972FEF3FEFF6
:1034A00053963C932E93529751963C932E9350975C
:1034B00057968C93579758961C9258975A961C92E9
:1034C0001E925997D5968C93D59784E0D6968C9377
:1034D000D6978AE0D7968C93D79785E3D8968C9326
:1034E000D897DA961C921E92D997DC961C921E925F
:1034F000DB97DD961C92DD97DE961C92DE9710928C
:10350000C5041092C6041092C7041092C80484E344
:103510009C968C939C9783E39A968C939A9782E3DC
:103520009B968C939B97E6E2F8E0E491F0E0EE0F37
:10353000FF1FE952F84F859194915E969C938E936C
:103540005D97E6ECF7E09491D3969C93D397E5E2F0
:10355000F8E0E491F0E0EE0FFF1FE952F84F2591FB
:10356000349194963C932E939397E5ECF7E08491F5
:1035700097968C939797E4E2F8E0E491F0E0EE0FF1
:10358000FF1FE952F84F2591349192963C932E9368
:103590009197E4ECF7E0249195962C939597EBEFB7
:1035A000F7E0E491F0E0EE0FFF1FE952F84F45918C
:1035B00054915C965C934E935B97EBE9F7E0349102
:1035C000D1963C93D197E3E2F8E0E491F0E0EE0F7E
:1035D000FF1FE958F84F4591549190965C934E9394
:1035E0005F97E3ECF7E0E4919996EC939997E32FDA
:1035F000E095D296EC93D2979095D4969C93D497DD
:10360000809598968C939897209596962C9396975C
:1036100084E292E08D939C930895789484B58260BF
:1036200084BD84B5816084BD85B5826085BD85B566
:10363000816085BD80916E00816080936E001092E4
:10364000810080918100826080938100809181005F
:1036500081608093810080918000816080938000F0
:103660008091B10084608093B1008091B00081604E
:103670008093B0008091910082608093910080914E
:10368000910081608093910080919000816080938F
:1036900090008091A10082608093A1008091A100A0
:1036A00081608093A1008091A00081608093A00040
:1036B00080912101826080932101809121018160AC
:1036C000809321018091200181608093200180916D
:1036D0007A00846080937A0080917A00826080937F
:1036E0007A0080917A00816080937A0080917A00DC
:1036F000806880937A001092C1000E948E160E940A
:103700006706FDCFA29FB001B39FC001A39F700DBC
:10371000811D1124911DB29F700D811D1124911DD9
:103720000895EE0FFF1F881F8BBF0790F691E02DC5
:1037300019940E94821B332312F48A1B9B0B0C9456
:10374000A31B0E94821BB7FF0895821B930B089551
:103750000F931F93CF93DF938230910510F482E093
:1037600090E0E091CB04F091CC0430E020E0B0E0B8
:10377000A0E0309799F42115310509F44AC0281BBF
:10378000390B24303105D8F58A819B81611571058B
:1037900089F1FB0193838283FE0111C04081518135
:1037A0000281138148175907E0F04817590799F427
:1037B000109761F012960C93129713961C93329601
:1037C000CF01DF91CF911F910F9108950093CB040A
:1037D0001093CC04F4CF2115310551F04217530753
:1037E00038F0A901DB019A01BD01DF01F801C1CF69
:1037F000EF01F9CF9093CC048093CB04CDCFFE01A1
:10380000E20FF31F8193919322503109398328836A
:10381000D7CF2091C9043091CA04232B41F42091C1
:103820000A0230910B023093CA042093C9042091FC
:103830000802309109022115310541F42DB73EB738
:1038400040910C0250910D02241B350BE091C904EC
:10385000F091CA04E217F307A0F42E1B3F0B2817C0
:10386000390778F0AC014E5F5F4F2417350748F0F9
:103870004E0F5F1F5093CA044093C90481939193E4
:103880009FCFF0E0E0E09CCFCF93DF930097E9F08B
:10389000FC01329713821282A091CB04B091CC0428
:1038A000ED0130E020E01097A1F420813181820FFA
:1038B000931F2091C9043091CA042817390709F0D1
:1038C00061C0F093CA04E093C904DF91CF910895D9
:1038D000EA01CE17DF07E8F54A815B819E014115B9
:1038E0005105B1F7E901FB83EA8349915991C40F6E
:1038F000D51FEC17FD0761F4808191810296840F3A
:10390000951FE90199838883828193819B838A83B0
:10391000F0E0E0E012968D919C9113970097B9F535
:103920002D913C911197CD010296820F931F20910A
:10393000C9043091CA042817390739F6309751F570
:103940001092CC041092CB04B093CA04A093C90483
:10395000BCCFD383C28340815181840F951FC81788
:10396000D90761F44E5F5F4F88819981480F591FD5
:10397000518340838A819B81938382832115310502
:1039800009F0B0CFF093CC04E093CB049ECFFD01BF
:10399000DC01C0CF13821282D7CF4F925F926F9219
:1039A0007F928F929F92AF92BF92CF92DF92EF92CF
:1039B000FF920F931F93CF93DF938C01009799F49D
:1039C000CB01DF91CF911F910F91FF90EF90DF908E
:1039D000CF90BF90AF909F908F907F906F905F90AF
:1039E0004F900C94A81BFC01E60FF71F9C0122507E
:1039F0003109E217F30708F4AEC0D901CD91DC918B
:103A00001197C617D70720F1C530D10578F0CE0140
:103A100004978617970750F0C61BD70B2297C193C0
:103A2000D1936D937C93CF010E94441CC801DF9118
:103A3000CF911F910F91FF90EF90DF90CF90BF90AB
:103A4000AF909F908F907F906F905F904F90089570
:103A50005B01AC1ABD0A4C018C0E9D1EA091CB04DB
:103A6000B091CC04512C412CF12CE12C109731F564
:103A70008091C9049091CA048815990509F05CC029
:103A80004616570608F058C0809108029091090226
:103A9000009741F48DB79EB740910C0250910D02F2
:103AA000841B950BE817F90708F055C0F093CA047A
:103AB000E093C904F90171836083B8CF8D919C9123
:103AC000119712966C90129713967C901397A815E5
:103AD000B90559F56C0142E0C40ED11CCA14DB04CF
:103AE00020F1AC014A195B09DA011296159780F0B2
:103AF0006282738251834083D9016D937C93E11478
:103B0000F10471F0D7011396FC93EE9312978ECFC8
:103B100022968C0F9D1FF90191838083F301EFCFD3
:103B2000F093CC04E093CB0481CF4816590608F4F7
:103B30002C017D01D3019ACFCB010E94A81B7C01EF
:103B4000009749F0AE01B8010E94B31DC8010E9460
:103B5000441C87016BCF10E000E068CF81E090E06B
:103B6000F8940C94C31DFB01DC0102C001900D927E
:103B700041505040D8F70895FB01DC0101900D92AF
:0A3B80000020E1F70895F894FFCF4C
:103B8A00FFFFFFFFFFFFFFFF0000CD0480000000E2
:103B9A000000FA05640591054706C205A005B405AB
:103BAA0000000000F30D640547124612A4073C0BFF
:103BBA000A0BA10A200A610A9F10AD0BBD11B311AD
:103BCA00B208230994099C0F240FC50E63154B11E3
:103BDA000D0A0052616973696E6720616C6C206519
:103BEA0076656E74732E2E2E005265616368656465
:103BFA00206D6178696D756D206E756D62657220D4
:103C0A006F66206C697374656E65727321204C69E6
:103C1A007374656E6572206D6574686F6420776968
:103C2A006C6C206E6F7420626520737562736372A8
:103C3A006962656420746F206576656E7400492731
:103C4A006D20746865206E6577206C697374656E83
:103C5A006572312E004F4C45454545450048656C17
:103C6A006C6F20576F726C64212049276D20696E32
:103C7A002072656E646572206D6574686F640052A7
:103C8A00656E646572204D6574686F640054686976
:103C9A00732069732061206E6577206275696C6490
:103CAA0000427574746F6E20636F6E7374727563FD
:103CBA00746F722072656163686564210048656C7F
:103CCA006C6F20576F726C642100526F73736F00B0
:103CDA0044414A4500417070726F616368696E675A
:0E3CEA00204576656E7420636C617373000074
:00000001FF
