:020000040000FA
:100000000C9423040C9454040C9454040C94540441
:100010000C9454040C9454040C9454040C94540400
:100020000C9454040C9454040C9454040C945404F0
:100030000C9454040C9454040C9454040C945404E0
:100040000C9454040C9454040C9454040C945404D0
:100050000C9454040C9454040C9454040C94F71809
:100060000C9454040C946B190C9441190C94540482
:100070000C9454040C9454040C9454040C945404A0
:100080000C9454040C9454040C9454040C94540490
:100090000C9454040C9454040C9454040C94A1191E
:1000A0000C9454040C9454040C9454040C94540470
:1000B0000C9454040C9454040C9454040C94540460
:1000C0000C9454040C9454040C9454040C94540450
:1000D0000C9454040C9454040C9454040C94540440
:1000E0000C9454040C948F050C94B0050C94C40526
:1000F0000C94A9050C94A5050C94AE080C94BA05B3
:100100000C94FD140C9451070C949B060C94AD05B3
:100110000C94C8050C94AA060C94C11A0C94BC0942
:100120000C94B6050C946E060C9438140C940407C9
:100130000C94460C0C946B0B0C948A050C940915CA
:100140000C94C7120C94FD0E0C94140C0C94CC0659
:100150000C94CE050C94D2050C94E0050C94031578
:100160000C94BD120C942A0B0C94A6100C945512EE
:100170000C9491080C9437140C94A9110C94AB0BAB
:100180000C94CF0F0C940F150C94D6050C94A1056C
:100190000C94DC050C94C0050C94B70C0C942D0A3F
:1001A0000C949E0A0C94C30C0C9486150C94BE06F9
:1001B0000C942E10EF03038002CF0300C130ED0436
:1001C00064031281E803850078CB05392C003402E2
:1001D000F70120EA020000C00123C10110C5023E60
:1001E00028C701863601483701003A0155B102009F
:1001F00018B603088227F20100260101E00F0F3133
:100200002B0C0E084EF1370710030E0900E10F000A
:100210000E1403110731C148080F0C31360F11803D
:1002200029800000000000003E5B4F5B3E3E6B4FAC
:100230006B3E1C3E7C3E1C183C7E3C181C577D5778
:100240001C1C5E7F5E1C00183C1800FFE7C3E7FF24
:100250000018241800FFE7DBE7FF30483A060E26B7
:1002600029792926407F050507407F05253F5A3C0F
:10027000E73C5A7F3E1C1C08081C1C3E7F14227F52
:1002800022145F5F005F5F06097F017F006689952A
:100290006A606060606094A2FFA29408047E040813
:1002A00010207E201008082A1C08081C2A08081E96
:1002B000101010100C1E0C1E0C30383E3830060E7C
:1002C0003E0E06000000000000005F000000070076
:1002D0000700147F147F14242A7F2A122313086432
:1002E0006236495620500008070300001C224100D6
:1002F0000041221C002A1C7F1C2A08083E08080016
:1003000080703000080808080800006060002010B5
:100310000804023E5149453E00427F40007249496F
:1003200049462141494D331814127F102745454550
:10033000393C4A4949314121110907364949493671
:10034000464949291E000014000000403400000006
:100350000814224114141414140041221408020138
:100360005909063E415D594E7C1211127C7F494964
:1003700049363E414141227F4141413E7F49494901
:10038000417F090909013E414151737F0808087FF7
:1003900000417F41002040413F017F081422417FFE
:1003A000404040407F021C027F7F0408107F3E4196
:1003B00041413E7F090909063E4151215E7F0919ED
:1003C0002946264949493203017F01033F40404005
:1003D0003F1F2040201F3F4038403F6314081463F4
:1003E00003047804036159494D43007F41414102B0
:1003F00004081020004141417F04020102044040F2
:10040000404040000307080020545478407F2844AF
:1004100044383844444428384444287F3854545499
:100420001800087E090218A4A49C787F08040478A8
:1004300000447D40002040403D007F1028440000E3
:10044000417F40007C047804787C080404783844B8
:10045000444438FC1824241818242418FC7C08046C
:100460000408485454542404043F44243C4040208D
:100470007C1C2040201C3C4030403C442810284438
:100480004C9090907C4464544C44000836410000E9
:1004900000770000004136080002010204023C26F9
:1004A00023263C1EA1A161123A4040207A385454C0
:1004B0005559215555794122545478422155547843
:1004C0004020545579400C1E5272123955555559D9
:1004D000395454545939555454580000457C4100FE
:1004E00002457D420001457C407D1211127DF028BD
:1004F0002528F07C545545002054547C547C0A092E
:100500007F4932494949323A4444443A324A484898
:10051000303A4141217A3A42402078009DA0A07DA6
:100520003D4242423D3D4040403D3C24FF24244862
:100530007E4943662B2FFC2F2BFF0929F620C0880C
:100540007E090320545479410000447D41304848DD
:100550004A32384040227A007A0A0A727D0D1931F7
:100560007D2629292F28262929292630484D402053
:10057000380808080808080808382F10C8ACBA2F2F
:10058000102834FA00007B000008142A14222214D8
:100590002A14085500550055AA55AA55AAFF55FF1B
:1005A00055FF000000FF00101010FF00141414FF8E
:1005B000001010FF00FF1010F010F0141414FC00D5
:1005C0001414F700FF0000FF00FF1414F404FC14DF
:1005D0001417101F10101F101F1414141F001010D8
:1005E00010F0000000001F101010101F101010104D
:1005F000F010000000FF101010101010101010FF6D
:1006000010000000FF140000FF00FF00001F101783
:100610000000FC04F414141710171414F404F4006C
:1006200000FF00F714141414141414F700F7141432
:1006300014171410101F101F141414F4141010F0B9
:1006400010F000001F101F0000001F14000000FC2D
:10065000140000F010F01010FF10FF141414FF1419
:100660001010101F00000000F010FFFFFFFFFFF050
:10067000F0F0F0F0FFFFFF0000000000FFFF0F0FA1
:100680000F0F0F3844443844FC4A4A4A347E020271
:100690000606027E027E0263554941633844443CAB
:1006A00004407E201E2006027E020299A5E7A5993D
:1006B0001C2A492A1C4C7201724C304A4D4D303074
:1006C00048784830BC625A463D3E494949007E015F
:1006D00001017E2A2A2A2A2A44445F444440514A7E
:1006E000444040444A51400000FF0103E080FF00C5
:1006F0000008086B6B083612362436060F090F0601
:10070000000018180000001010003040FF01010028
:100710001F01011E00191D1712003C3C3C3C00004B
:1007200000000000002100240027002A002D0030D6
:1007300000330001010000040107010A0100000A62
:100740000B02090C0D0E0807030401000000000055
:100750000000000000000000000000000000000099
:100760000000000000000000001211100000000056
:100770000000000000000000000000000000000079
:10078000000000000020002300260029002C002F7C
:1007900000320000010000030106010901010210FE
:1007A000202008081020401020408002010201088B
:1007B000040201010204081020408080402010083B
:1007C0000402018004020180402010080402010894
:1007D00004020101020408102040800102040810F4
:1007E00020408000002200250028002B002E003130
:1007F00000340002010000050108010B0105050598
:1008000005070508080808020202020A0A08080487
:1008100004040401010101010101010303030303B5
:10082000030303040707070C0C0C0C0C0C0C0C0244
:1008300002020206060606060606060B0B0B0B0B4B
:100840000B0B0B00C11A11241FBECFEFD1E2DEBF8C
:10085000CDBF00E00CBF13E0A0E0B2E0E0E4F9E3BC
:1008600000E00BBF02C007900D92A036B107D9F788
:1008700024E0A0E6B3E001C01D92AB3BB207E1F774
:1008800014E0C3E2D4E000E006C021970109802F04
:10089000FE010E94821CC232D10780E00807A9F73E
:1008A0000E94061B0C949E1C0C940000CF92DF92B9
:1008B000EF920F931F93DC0113961C921E921297D6
:1008C000E0EFF0E01596FC93EE93149780E491E04E
:1008D00017969C938E9316971996FC93EE93189700
:1008E0001B969C938E931A9756961C9256971D961C
:1008F0001C921E921C971F961C921E921E9781E0BE
:1009000055968C93559754968C935497EFEFFFEF31
:100910005396FC93EE9352975196FC93EE93509717
:1009200057968C93579758961C9258975A961C92A4
:100930001E925997E0E1F2E01196FC93EE93D59662
:100940008C93D597D696EC92D697D7966C93D797EB
:10095000D8964C93D897DA961C921E92D997DC962B
:100960001C921E92DB97DD961C92DD97DE961C9200
:10097000DE97FD01FF9610821182128213829C96EF
:100980000C939C979A962C939A979B96CC929B97B4
:10099000042E000C550BFA01E350F84FE491F0E0FF
:1009A000EE0FFF1FED51F84F859194915E969C9349
:1009B0008E935D974356584FFA014491D3964C93CA
:1009C000D397002E000C110BF801E350F84FE4917F
:1009D000F0E0EE0FFF1FED51F84F85919491949642
:1009E0009C938E9393970356184FF8010491979612
:1009F0000C939797022E000C330BF901E350F84F3C
:100A0000E491F0E0EE0FFF1FED51F84F85919491C6
:100A100092969C938E9391972356384FF901249187
:100A200095962C939597062E000C770BFB01E350BF
:100A3000F84FE491F0E0EE0FFF1FED51F84F859174
:100A400094915C969C938E935B976356784FFB01D1
:100A50006491D1966C93D1978C2DCC0C990BFC01A1
:100A6000E350F84FE491F0E0EE0FFF1FED57F84F21
:100A7000C590D4909096DC92CE925F978356984F13
:100A8000FC01849199968C9399976095D2966C937A
:100A9000D2974095D4964C93D497009598960C9302
:100AA0009897209596962C931F910F91EF90DF9039
:100AB000CF900895282F30E0F901E35CF84F94912E
:100AC000F901E356F84F44912350384FF90124912E
:100AD000222309F435C0992311F191509231F8F491
:100AE000E92FF0E08827E858FA4F8F4F0C94821CCA
:100AF000A905AD058A05A105A5058F05B005B605B3
:100B0000BA05C005C405C805CE05D2058F05D605B2
:100B1000DC05E005809180008F7780938000E22FD4
:100B2000F0E0EE0FFF1FED51F84FA591B4918FB794
:100B3000F894EC91611148C040954E234C938FBFBF
:100B40000895809180008F7DE8CF80918000877F1D
:100B5000E4CF84B58F7784BDE2CF84B58F7DFBCFA2
:100B60008091B0008F778093B000D9CF8091B00092
:100B70008F7DF9CF809190008F7780939000CFCFB9
:100B8000809190008F7DF9CF80919000877FF5CF85
:100B90008091A0008F778093A000C1CF8091A000AA
:100BA0008F7DF9CF8091A000877FF5CF80912001C4
:100BB0008F7780932001B3CF809120018F7DF9CF73
:100BC00080912001877FF5CF4E2BB8CFCF93DF9355
:100BD00090E0FC01E356F84F24918350984FFC01BC
:100BE00084918823D1F090E0880F991FFC01ED5D7E
:100BF000F84FA591B491FC01ED51F84FC591D491F6
:100C000061110EC09FB7F8948C91E22FE0958E236E
:100C10008C932881E223E8839FBFDF91CF910895D1
:100C20008FB7F894EC91E22BEC938FBFF6CF3FB7E0
:100C3000F8948091D7039091D803A091D903B091F3
:100C4000DA0326B5A89B05C02F3F19F00196A11D18
:100C5000B11D3FBFBA2FA92F982F8827BC01CD0106
:100C6000620F711D811D911D42E0660F771F881F65
:100C7000991F4A95D1F708958F929F92AF92BF9294
:100C8000CF92DF92EF92FF924B015C010E94170618
:100C90006B017C010E9417066C197D098E099F0962
:100CA000683E734081059105A8F321E0821A9108FE
:100CB000A108B10888EEC80E83E0D81EE11CF11C23
:100CC00081149104A104B10429F7FF90EF90DF9003
:100CD000CF90BF90AF909F908F900895AF92BF92AA
:100CE000CF92DF92EF92FF920F931F93CF93DF93F8
:100CF0006C017B018B01040F151FEB015E01AE1827
:100D0000BF08C017D10759F06991D601ED91FC9148
:100D10000190F081E02DC6011995892B79F7C50165
:100D2000DF91CF911F910F91FF90EF90DF90CF90C7
:100D3000BF90AF900895FC01538D448D252F30E076
:100D4000842F90E0821B930B541710F0CF960895D8
:100D500001970895FC01918D828D981761F0A28D05
:100D6000AE0FBF2FB11D5D968C91928D9F5F9F73CB
:100D7000928F90E008958FEF9FEF0895FC01918D81
:100D8000828D981731F0828DE80FF11D858D90E0EE
:100D900008958FEF9FEF0895FC01918D228D892F8B
:100DA00090E0805C9F4F821B91098F739927089573
:100DB0008BED93E00E94CC0621E0892B09F420E022
:100DC000822F0895FC01A48DA80FB92FB11DA35A3D
:100DD000BF4F2C91848D90E001968F739927848F5B
:100DE000A689B7892C93A089B1898C91837080647E
:100DF0008C93938D848D981306C00288F389E02D1F
:100E000080818F7D80830895EF92FF920F931F93CF
:100E1000CF93DF93EC0181E0888F9B8D8C8D9813AD
:100E20001AC0E889F989808185FF15C09FB7F894B9
:100E3000EE89FF896083E889F98980818370806405
:100E400080839FBF81E090E0DF91CF911F910F9150
:100E5000FF90EF900895F62E0B8D10E00F5F1F4F5F
:100E60000F731127E02E8C8D8E110CC00FB607FC6E
:100E7000FACFE889F989808185FFF5CFCE010E94FC
:100E8000E206F1CFEB8DEC0FFD2FF11DE35AFF4F82
:100E9000F0829FB7F8940B8FEA89FB89808180628A
:100EA000CFCFCF93DF93EC01888D8823B9F0AA8947
:100EB000BB89E889F9898C9185FD03C0808186FD15
:100EC0000DC00FB607FCF7CF8C9185FFF2CF808164
:100ED00085FFEDCFCE010E94E206E9CFDF91CF91F1
:100EE000089580E090E0892B29F00E94D8068111B6
:100EF0000E94000080E090E0892B49F080E090E0C3
:100F0000892B29F00E94000081110E94000080E0DE
:100F100090E0892B49F080E090E0892B29F00E9435
:100F2000000081110E94000080E090E0892B49F0D0
:100F300080E090E0892B29F00E94000081110C9440
:100F40000000089520918803260F3327331F213294
:100F50003105ECF42091AC03FC0190E080E02430FA
:100F600069F082E00895A09188032191AC0148596D
:100F70005C4FA40FB52FB11D2C930196861798F3E3
:100F800080918803680F6093880380E0089581E072
:100F9000089508958FEF9FEF08958FEF9FEF0895C5
:100FA0008091610390E09195819591090895CF9387
:100FB000DF93CB01EA01642F0E94A207CE01DF91EB
:100FC000CF910895CF93DF931F92CDB7DEB769839A
:100FD00061E0CE0101960E94A20781E090E00F90AF
:100FE000DF91CF910895FC01A5A1B6A18C9192A5A6
:100FF00089238C93A5A1B6A18C9191A5892B8C9363
:1010000008950F931F93CF93DF93EC018B018DA96C
:1010100081110DC01EBD0DB407FEFDCF0EBD0DB478
:1010200007FEFDCFDF91CF911F910F910895813081
:10103000E9F480E1E9A1FAA1908117FF14C02DA184
:10104000922B9083EBA1FCA190812FA1922B9083F6
:10105000EBA1FCA1908128A592239083000F111F82
:10106000815041F7DFCF2EA19223EBCFEF8DF8A176
:101070001083CE010E94F307EF8DF8A10083CE010B
:10108000DF91CF911F910F910C94F307FC0185A97B
:10109000811105C06EBD0DB407FEFDCF08958130EE
:1010A000E1F488E0A1A1B2A19C9167FF13C025A142
:1010B000922B9C93A3A1B4A19C9127A1922B9C93CA
:1010C000660FA3A1B4A19C9120A592239C9381506B
:1010D00049F7089526A19223ECCFA78DB0A16C9378
:1010E000CF010C94F307CF93DF93EC01ED8DFE8DD0
:1010F00080819CA989238083CE010E944608ED8DC2
:10110000FE8D80819BA9892B8083DF91CF910895EB
:10111000FC0185A9811104C091A182A19CBD8DBD56
:1011200008951F93CF93DF93EC01162FE881F98187
:101130000284F385E02D1995112371F06DADCE0178
:101140000E947308E881F9810688F789E02DCE01B5
:10115000DF91CF911F9119946EADF1CFAF92BF92F5
:10116000CF92DF92EF92FF920F931F93CF93DF9373
:10117000EC0177FD38C088859985681779079CF55B
:1011800057FD31C08A859B854817590764F5690169
:101190007A015B01E881F9810284F385E02DCE01BB
:1011A0001995E881F98102A4F3A5E02D01E010E092
:1011B00021E030E0A701B501CE011995B601CE01BD
:1011C0000E940108E881F9810688F789E02DCE01A7
:1011D000DF91CF911F910F91FF90EF90DF90CF9013
:1011E000BF90AF901994DF91CF911F910F91FF9015
:1011F000EF90DF90CF90BF90AF9008958F929F9225
:10120000AF92BF92CF92DF92EF92FF920F931F9314
:10121000CF93DF93EC0149015701E881F98102A4E2
:10122000F3A5E02D19959401D8010E948A1C6B0149
:101230007C01C114D104E104F10409F490C08DA92A
:10124000811115C081E0C81AD108E108F1088FEFBB
:10125000C816D806E806F80609F481C0BEBC0DB46D
:1012600007FEFDCFAEBC0DB407FEFDCFEBCF813046
:1012700009F045C081E0C81AD108E108F1088FEFF4
:10128000C816D806E806F80609F469C09B2D88E060
:10129000E9A1FAA1208197FF2CC03DA1232B208337
:1012A000EBA1FCA120813FA1232B2083EBA1FCA17A
:1012B000208138A523232083990F815049F79A2D47
:1012C00088E0E9A1FAA1208197FF16C03DA1232B58
:1012D0002083EBA1FCA120813FA1232B2083EBA144
:1012E000FCA1208138A523232083990F815049F741
:1012F000C1CF3EA12323D3CF3EA12323E9CFBA10F0
:1013000016C0CC0CDD1CEE1CFF1CEF8DF8A1B082CA
:1013100081E0C81AD108E108F1088FEFC816D80695
:10132000E806F806E1F0CE010E94F307F1CF81E074
:10133000C81AD108E108F1088FEFC816D806E806E8
:10134000F80669F0EF8DF8A1B082CE010E94F30794
:10135000EF8DF8A1A082CE010E94F307E8CFDF91C4
:10136000CF911F910F91FF90EF90DF90CF90BF90A2
:10137000AF909F908F9008958F929F92AF92BF925F
:10138000CF92DF92EF92FF920F931F93CF93DF9351
:101390005C014B016A01E90177FD52C0DC0118963E
:1013A0008D919C91681779070CF04AC0209709F439
:1013B00047C037FF07C0C9010196C80ED91ED19595
:1013C000C195D109F50182859385C816D906C4F562
:1013D000A6014C0F5D1F9A012150310937FD30C025
:1013E000D7FE03C0EA01D12CC12C281739071CF005
:1013F000EC01CC19DD09D501ED91FC910284F38556
:10140000E02DC501199578018E0121E030E0A6019B
:10141000B401C5010E94FE08D501ED91FC9106883A
:10142000F789E02DC501DF91CF911F910F91FF90BA
:10143000EF90DF90CF90BF90AF909F908F901994D6
:10144000DF91CF911F910F91FF90EF90DF90CF90A0
:10145000BF90AF909F908F9008958F929F92AF9280
:10146000BF92CF92DF92EF92FF920F931F93CF9391
:10147000DF935C016B014A01E90157FD52C0DC01B9
:101480001A968D919C91481759070CF04AC02097E5
:1014900009F447C037FF07C0C9010196C80ED91E1D
:1014A000D195C195D109F50180859185C816D906D8
:1014B000C4F5A6014C0F5D1F9A012150310937FD7B
:1014C00030C0D7FE03C0EA01D12CC12C2817390740
:1014D0001CF0EC01CC19DD09D501ED91FC910284E1
:1014E000F385E02DC5011995780101E010E09E011A
:1014F000A401B601C5010E94FE08D501ED91FC9141
:101500000688F789E02DC501DF91CF911F910F91DA
:10151000FF90EF90DF90CF90BF90AF909F908F9013
:101520001994DF91CF911F910F91FF90EF90DF9071
:10153000CF90BF90AF909F908F9008958F929F9281
:10154000AF92BF92CF92DF92EF92FF920F931F93D1
:10155000CF93DF934C016B015A01E901209709F405
:101560006CC00115110509F468C037FF07C0C90137
:101570000196C80ED91ED195C195D109F401A08557
:10158000B185CA16DB060CF058C017FF07C0C801AA
:101590000196A80EB91E119501951109F4018285D5
:1015A0009385A816B9060CF048C0F601EC0FFD1F94
:1015B000AF014150510957FD40C0B501600F711F87
:1015C0009B012150310937FD38C0D7FE03C0EF0120
:1015D000D12CC12CB7FE03C08B01B12CA12C4A1712
:1015E0005B071CF0ED01CC19DD09281739071CF049
:1015F0008C010A191B09D401ED91FC910284F38539
:10160000E02DC40119959E01A501B601C4010E94F7
:10161000FE08D401ED91FC910688F789E02DC40104
:10162000DF91CF911F910F91FF90EF90DF90CF90BE
:10163000BF90AF909F908F901994DF91CF911F91A1
:101640000F91FF90EF90DF90CF90BF90AF909F9061
:101650008F900895EF92FF920F931F93CF93DF9394
:1016600077FD32C0DC011896ED91FC916E177F0773
:101670005CF52115310541F137FF07C0F9013196BD
:101680004E0F5F1F319521953109DC011A96ED91BE
:10169000FC914E175F07C4F4EA01C20FD31FDE01AD
:1016A0001197B7FD11C057FF03C09E0150E040E005
:1016B000AE17BF071CF09F01241B350B7801890171
:1016C00021E030E00E94FE08DF91CF911F910F9141
:1016D000FF90EF900895EF92FF920F931F93CF9397
:1016E000DF9357FD31C0DC011A96ED91FC914E1746
:1016F0005F0754F52115310539F137FF07C0F901AE
:1017000031966E0F7F1F319521953109DC011896B6
:10171000ED91FC916E177F07BCF4EB01C20FD31F54
:10172000DE011197B7FD10C077FF03C09E0170E086
:1017300060E0AE17BF071CF09F01261B370B780136
:1017400001E010E00E94FE08DF91CF911F910F9100
:10175000FF90EF9008958F929F92AF92BF92CF9299
:10176000DF92EF92FF920F931F93CF93DF93470186
:101770002115310509F44BC00115110509F447C0C5
:1017800037FF07C0F90131966E0F7F1F3195219504
:101790003109DC011896AD90BC906A157B05BCF54B
:1017A00017FF07C0F80131964E0F5F1F1195019585
:1017B0001109DC011A96ED91FC914E175F073CF57B
:1017C0006B01C20ED31EE6012197D7FD20C07A011E
:1017D000E00EF11ED7011197B7FD19C077FF03C0C6
:1017E000960170E060E057FF03C0870150E040E0E1
:1017F000CA15DB051CF09501261B370BAE17BF077A
:101800001CF08F01041B150B74010E94FE08DF9170
:10181000CF911F910F91FF90EF90DF90CF90BF90ED
:10182000AF909F908F900895EF92FF920F931F9328
:10183000CF93DF93EC0177FD22C0888599856817E7
:101840007907ECF457FD1BC08A859B85481759071B
:10185000B4F47901E881F98102A4F3A5E02D01E057
:1018600010E021E030E0CE011995B701CE01DF9103
:10187000CF911F910F91FF90EF900C940108DF9191
:10188000CF911F910F91FF90EF900895CF93DF9329
:10189000EC010E9488088FA987FD06C0EB8DFC8DA6
:1018A00080819AA989238083DF91CF91089508953B
:1018B000AF92BF92CF92DF92EF92FF920F931F935E
:1018C000CF93DF93EC01E62E8A01A22E0E948808B6
:1018D0008FA987FD06C0EB8DFC8D80819AA9892395
:1018E0008083ED8DFE8D80819CA9892380836E2D60
:1018F000CE010E944608ED8DFE8D80819BA9892B2B
:101900008083D12CC12CB12CCA14DB04E4F48DA942
:101910007801823079F488A9882361F0F801619117
:1019200071917F01CE010E940108FFEFCF1ADF0AFB
:101930008701EACFFFEFEF1AFF0AF8016491CE01A9
:101940000E944608F2CF8FA987FD06C0EB8DFC8D63
:10195000808199A9892B8083DF91CF911F910F916D
:10196000FF90EF90DF90CF90BF90AF900895FC0173
:1019700087A987FD06C0A38DB48D9C9181A9892B71
:101980008C9308950895FC016370668B8481958122
:1019900026813781613039F0633029F09187808763
:1019A0003387228708953187208793878287089518
:1019B0002F923F924F925F926F927F928F929F925F
:1019C000AF92BF92CF92DF92EF92FF920F931F934D
:1019D000CF93DF93CDB7DEB76A970FB6F894DEBF2B
:1019E0000FBECDBF9A8F898F7A8369834A01D22E29
:1019F00018870F833701BC2CDC0159962D913C913F
:101A00005A972115310509F015C118968D919C91B1
:101A10001997681779070CF0D7C11A968D919C9188
:101A2000481759070CF0D0C14C2C512CB6E0CB9E76
:101A3000600D711D11247C876B87161617060CF03C
:101A4000C3C1EA2DF0E0FA87E98793E0EE0FFF1FAC
:101A50009A95E1F7F88BEF87CF01840F951F181641
:101A600019060CF0B1C1A98DBA8D58968C918111CF
:101A700004C0BFEABD1508F4D394A98DBA8DED91C9
:101A8000FC9111970284F385E02DCD011995B5E005
:101A9000DB9EC0011124E981FA81FC83EB83312CA8
:101AA000212C9C012D5D3D4F388F2F8B4A2D50E00E
:101AB0005E8B4D8BEF89F88DE20DF31D44919E8274
:101AC0008D82D12CC12C69817A81620D731D7A8B34
:101AD000698B842F90E09C8B8B8BE98DFA8DA08194
:101AE000B18140FF82C0F1E0BF126FC0AF126DC084
:101AF0001C96ED91FC912F813885A4014C0D5D1D44
:101B000069897A89898D9A8D1995EB89FC89F59572
:101B1000E7954E2F5FEFC51AD50A6D817E818D89BD
:101B20009E89680F791F7E836D8398E0C916D10462
:101B300081F6AFEF2A1A3A0AEB81FC81E40DF51D1C
:101B4000FC83EB83F5E02F16310409F0B3CF2F812E
:101B5000388526153705B9F0A98DBA8DED91FC9120
:101B6000B1E0BB1257C0AB1255C069817A816B5F7F
:101B70007F4F0088F189E02D830128E030E0A40147
:101B8000898D9A8D1995A98DBA8DED91FC9111973A
:101B90000688F789E02DCD016A960FB6F894DEBF6E
:101BA0000FBECDBFDF91CF911F910F91FF90EF90AE
:101BB000DF90CF90BF90AF909F908F907F906F906D
:101BC0005F904F903F902F9019941E96ED91FC914D
:101BD000EF80F88409851A8592014D815E816B81C1
:101BE0007C81898D9A8D199590CF2F813885261506
:101BF000370509F48ACF31E0B31207C0A31205C03C
:101C00001C96ED91FC91930178CF1E96ED91FC917D
:101C10007301E0CF6B857C85641975090684F785AF
:101C2000E02D73010F8518899201A401898D9A8D89
:101C30001995A9CFF9013496949132974591549111
:101C4000D91AB7E0DB9E400D511D1124F9012591F1
:101C500034913C8B2B8BFA0125903490FA0132960B
:101C6000749031963491398B3296649031964490C9
:101C700041E04C1518F04A1508F07FC0662D062C7F
:101C8000000C770B7C836B83842D042C000C990B48
:101C90009E838D83A98DBA8DED91FC91119702845D
:101CA000F385E02DCD011995512CD12CC12CEA2DB5
:101CB000F0E0FA87E9872B2D30E03C872B87A401E1
:101CC000440D511D47FC5A95588F4F8B69817A817D
:101CD000660D711D67FC7A957E876D877989C716B9
:101CE00008F051CF2C2D30E04D815E81420F531F03
:101CF000A985BA854A9FC0014B9F900D5A9F900DB0
:101D00001124FC01E80DF91DF88BEF87852D612C5E
:101D10004F89588D420F531F5E8B4D8B671408F00F
:101D200050C044244394480E877041F4C101019689
:101D3000EB89FC89E20DF31DD4901C01D7FE19C07C
:101D4000A98DBA8DED91FC91662D70E0B1E0BB12CA
:101D500019C0AB1217C02D853E85620F731F048416
:101D6000F585E02D2F8138854D895E89898D9A8D85
:101D70001995DD0C6394842DD1CF1E821D821C82A7
:101D80001B8288CF4B815C81640F751FAB85BC853E
:101D90006A9FC0016B9F900D7A9F900D11246981FD
:101DA0007A81680F791F0684F785E02DEF80F8842B
:101DB00009851A859D014F855889898D9A8D1995B8
:101DC000D8CF570CC3948ACF6A960FB6F894DEBF6B
:101DD0000FBECDBFDF91CF911F910F91FF90EF907C
:101DE000DF90CF90BF90AF909F908F907F906F903B
:101DF0005F904F903F902F9008958F929F92AF9257
:101E0000CF92EF92FF920F931F93CF93DF93EC014A
:101E1000262F898D9A8D009709F051C06A30D1F430
:101E20001D861C868D8948E0849F900111248E8533
:101E30009F85820F931F9F878E8781E090E0DF91BF
:101E4000CF911F910F91FF90EF90CF90AF909F9007
:101E50008F9008956D3089F3CC88AD888F89882361
:101E6000C1F08C859D8536E0C39E800D911D1124A7
:101E7000488559854817590764F44E855F851D8646
:101E80001C8638E0A39EC0011124840F951F9F87F4
:101E90008E87EA88FB88088919894E855F856C855D
:101EA0007D85CE010E94D80C2C898C859D8546E0CD
:101EB000249F800D911D11249D878C87BECF6A3091
:101EC00069F41D861C86FC013896E4912D898E8567
:101ED0009F85E29F800D911D1124ADCF6D3009F4D7
:101EE000ACCFFC0134963491631708F4A6CF329638
:101EF000E491E61708F4A1CFFC0132968590949006
:101F0000462F431B342F47E0349F800C911C112433
:101F1000F401329634913196E4913323A9F1EE2302
:101F200099F1CC88F4013596E491AD884F8944232A
:101F300001F10E2E000CFF0BE30FF11DCE9EA00150
:101F4000CF9E500D11246C857D85460F571F6885E7
:101F50007985641775076CF44E855F851D861C8630
:101F6000FC013896E491AE9E400D511D11245F870F
:101F70004E87EA88FB88088919894E855F856C85BC
:101F80007D85CE010E94D80CF4013496E4912C8911
:101F90008C859D85E29F800D911D11248DCF6F92C0
:101FA0007F928F929F92AF92BF92CF92DF92EF92E9
:101FB000FF920F931F93CF93DF93EC016B015A01B4
:101FC00039014801E881F9810284F385E02D1995F2
:101FD000E881F9810288F389E02D87019301A50149
:101FE000B601CE011995A501480D591D4150510961
:101FF000E881F9810288F389E02D9301B601CE01D1
:102000001995E881F9810088F189E02D9401A501F5
:10201000B601CE011995C60CD71CB60161507109E5
:10202000E881F9810088F189E02D9401A501CE01B4
:102030001995E881F9810688F789E02DCE01DF91B5
:10204000CF911F910F91FF90EF90DF90CF90BF90B5
:10205000AF909F908F907F906F9019946F927F9226
:102060008F929F92AF92BF92CF92DF92EF92FF92A8
:102070000F931F93CF93DF935C01EB016A0149013A
:1020800038018701DC01ED91FC916217730719F5A6
:10209000641675062CF0962D872D3A01C92ED82E80
:1020A0009601261937092F5F3F4F048CF58DE02DDF
:1020B000A301BE01C5011995DF91CF911F910F9129
:1020C000FF90EF90DF90CF90BF90AF909F908F9058
:1020D0007F906F9008954615570591F4261737079E
:1020E00024F0892D4B01C22FD82F9E0128193909C0
:1020F0002F5F3F4F068CF78DE02DA601B401DACF9C
:102100000284F385E02D1995D501ED91FC910488A9
:10211000F589E02D83019401A601BE01C501199541
:10212000D501ED91FC910688F789E02DC501DF917D
:10213000CF911F910F91FF90EF90DF90CF90BF90C4
:10214000AF909F908F907F906F901994EF92FF9235
:102150000F931F93DC011A960D911C911B971896F3
:102160002D913C911997ED91FC9100A0F1A1E02DEA
:102170007B0150E040E070E060E019951F910F9105
:10218000FF90EF9008954F925F926F927F928F929F
:102190009F92AF92BF92CF92DF92EF92FF920F93F6
:1021A0001F93CF93DF936C012B015A013901480132
:1021B000DC01ED91FC910284F385E02D1995E2019B
:1021C000640C751CD601ED91FC91C615D7055CF425
:1021D0000088F189E02D87019401A501BE01C601A7
:1021E00019952196EFCF0688F789E02DC601DF917A
:1021F000CF911F910F91FF90EF90DF90CF90BF9004
:10220000AF909F908F907F906F905F904F901994B8
:102210008F929F92AF92BF92CF92DF92EF92FF92F6
:102220000F931F93CF93DF93EC015B014A01690188
:10223000E881F9810284F385E02D199595012C0D33
:102240003D1D21503109E881F9810488F589E02D8F
:1022500078018401A401B501CE011995E881F981C5
:102260000688F789E02DCE01DF91CF911F910F9164
:10227000FF90EF90DF90CF90BF90AF909F908F90A6
:1022800019948F929F92AF92BF92CF92DF92EF926A
:10229000FF920F931F93CF93DF93EC015B014A01F1
:1022A00069017801E881F9810284F385E02D1995AF
:1022B000C80CD91C860101501109E881F9810488F4
:1022C000F589E02D9501A401B501CE011995E881AC
:1022D000F9810688F789E02DCE01DF91CF911F911A
:1022E0000F91FF90EF90DF90CF90BF90AF909F90B5
:1022F0008F901994EF92FF920F931F93DC01ED9151
:10230000FC9100A0F1A1E02D19951F910F91FF9074
:10231000EF9008950F931F93DC01ED91FC91068CD3
:10232000F78DE02D19951F910F9108950F931F932D
:10233000DC01ED91FC91048CF58DE02D19951F9138
:102340000F910895DC01ED91FC910084F185E02D61
:1023500019942F923F924F925F926F927F928F9239
:102360009F92AF92BF92CF92DF92EF92FF920F9324
:102370001F93CF93DF9300D000D0CDB7DEB73C01E1
:102380006A013E832D83FC82EB825801A41AB50AB0
:10239000B7FE03C0B194A194B1088D809E80861AC7
:1023A000970A97FE03C09194819491088A149B0424
:1023B0005CF0902F812F0D811E819D838E839C2D3B
:1023C0008D2D6B01692F782F0C151D055CF09D81FB
:1023D0008E817E836D83692F782F902F812F8601C8
:1023E000C92ED82E1601201A310A2B012D813E81CB
:1023F000421A530A57FE03C0519441945108710187
:1024000037FE03C03FEFE31AF30AF594E7948D819A
:102410009E81861797075CF5A1E0B0E0BA83A98397
:10242000C016D1064CF1D301ED91FC910484F585E1
:10243000E02D2B813C81A8016D817E818A149B0453
:102440001CF04D815E81B801C3011995E418F508AF
:10245000F7FE0AC02D813E8189819A81280F391F9C
:102460003E832D83E20CF31C0F5F1F4FD9CF2FEF5C
:102470003FEF3A832983D4CF26960FB6F894DEBF78
:102480000FBECDBFDF91CF911F910F91FF90EF90C5
:10249000DF90CF90BF90AF909F908F907F906F9084
:1024A0005F904F903F902F900895AF92BF92CF9240
:1024B000DF92EF92FF920F931F93CF93DF93EC0184
:1024C0005B016A01215031097901E60EF71E0150C6
:1024D0001109040F151F80910602909107028617BB
:1024E000970739F480910402909105028E159F059B
:1024F000A1F06AE2CE010E947308B501CE010E94EC
:102500000108B701CE010E940108B0920702A09213
:102510000602F0920502E09204028091020290917C
:1025200003028C159D0539F48091000290910102FF
:1025300080179107A1F06BE2CE010E947308B601EB
:10254000CE010E940108B801CE010E940108D0927C
:102550000302C092020210930102009300026CE297
:10256000CE01DF91CF911F910F91FF90EF90DF90FF
:10257000CF90BF90AF900C947308611106C060E2D9
:1025800020E050E040E00C94580C61E2F9CF0F934A
:102590001F93CF93DF931F92CDB7DEB78C0163708B
:1025A000DC0156966C935697623009F468C063302C
:1025B00009F46AC0613009F456C088E4898380EF69
:1025C00090E019969C938E93189780E491E01B9667
:1025D0009C938E931A97C8010E948808D801D796B9
:1025E0008C91D79787FD09C05B96ED91FC915C9724
:1025F0008081D2969C9189238083D8015D96ED914C
:10260000FC915E978081D4969C918923808366E3B8
:10261000C8010E944608D8015D96ED91FC915E9735
:102620008081D3969C91D397892B8083D5968C916A
:10263000823061F16981C8010E944608D801D796AD
:102640008C91D79787FD09C05B96ED91FC915C97C3
:102650008081D1969C91892B80830F90DF91CF91BF
:102660001F910F91089588E2898380E491E0F80139
:102670009187808780EF90E093878287ACCF88E84E
:10268000898380EF90E09DCF88EEEECFF80180A99E
:10269000882381F269817A81C8010E940108CECF26
:1026A000CF93DF93EB012A813B81FC0133832283AB
:1026B0002C813D81358324832E813F81378326837E
:1026C00028853985318720872A853B85338722876E
:1026D0002C853D85358724872E853F85378726873E
:1026E00028893989318B208B2A893B89338B228B2E
:1026F0002C89248B2D89258B2E89268B2F89278B3E
:10270000288D208F298D3A8D328F218F2B8D3C8DF6
:10271000348F238F2D8D3E8D368F258F22E1FB0147
:102720007F96DC015F9601900D922A95E1F729A929
:10273000FC0121AB2AA922AB2BA923AB2CA924ABEA
:102740002DA925AB2EA926AB2FA927AB28AD20AFED
:1027500029AD3AAD32AF21AF2BAD3CAD34AF23AF95
:102760002DAD25AF2EAD26AFEF96488159816A81F8
:102770007B81FF964083518362837383DF91CF9186
:102780000895CF93DF93EC01FB01828193819B83BA
:102790008A83848195819D838C83868197819F83A1
:1027A0008E838085918599878887828593859B878D
:1027B0008A87848595859D878C87868597859F8761
:1027C0008E8780899189998B888B828993899B8B4D
:1027D0008A8B84898C8B85898D8B86898E8B878962
:1027E0008F8B808D888F818D928D9A8F898F80E1DC
:1027F00092E099838883838D948D9C8F8B8F858DB8
:10280000968D9E8F8D8F82E17F96DE015F9601907F
:102810000D928A95E1F7FB0181A989AB82A98AAB68
:1028200083A98BAB84A98CAB85A98DAB86A98EAB14
:1028300087A98FAB80AD88AF81AD92AD9AAF89AFDC
:1028400083AD94AD9CAF8BAF85AD8DAF86AD8EAFB4
:10285000615C7F4FFB0180819181A281B381EF9602
:1028600088839983AA83BB83DF91CF9108950895CC
:1028700090E080E00895FB0101900020E9F7319796
:10288000AF01461B570B0C946E068F929F92AF922E
:10289000BF920F931F93CF93DF93CDB7DEB7A1976E
:1028A0000FB6F894DEBF0FBECDBF19A2423008F4B8
:1028B0004AE08E010F5D1F4F842E912CB12CA12C6C
:1028C000A50194010E94511CE62FB901CA01EA300A
:1028D00004F5E05DD801EE938D01232B242B252BED
:1028E00079F790E080E0109729F0BD018BED93E03F
:1028F0000E943B14A1960FB6F894DEBF0FBECDBF69
:10290000DF91CF911F910F91BF90AF909F908F90CB
:102910000895E95CDFCFCF92DF92EF92FF92CF93E1
:10292000DF936B017C016DE28BED93E00E94040765
:10293000EC0166277727CB016C197D098E099F0969
:102940004AE00E9445148C0F9D1FDF91CF91FF90AC
:10295000EF90DF90CF9008950F931F93CF93DF9365
:10296000EC010E943B148C016EE772E0CE010E94E4
:102970003B14800F911FDF91CF911F910F9108950C
:10298000EF92FF920F931F93CF93DF937C0161E847
:1029900072E08BED93E00E94AC148701D0E0C0E0C0
:1029A000D7011A968D919C918C179D073CF0D80108
:1029B000ED91FD918D0119952196F2CFDF91CF9187
:1029C0001F910F91FF90EF900895FC0122853385B0
:1029D0002430310564F42F5F3F4F33872287220F65
:1029E000331F280F391FF90171836083089567E948
:1029F00072E08BED93E00C94AC146CEE72E08BED16
:102A000093E00C94AC146AEF72E08BED93E00C94BD
:102A1000AC1461E173E08BED93E00C94AC140E9474
:102A2000991C1F93CF93DF9385ED8093BC00809119
:102A3000640390916503A0916603B09167030796C4
:102A4000A11DB11D23E0B695A795979587952A9569
:102A5000D1F72091BC0024FD03C01092AC0352C0FA
:102A60004091640350916503609166037091670320
:102A7000452B462B472B69F30097A105B10541F083
:102A80002AE22A95F1F700C00197A109B109E1CF27
:102A900080916303C1E0C0936203882399F1D091D0
:102AA000B8001091BA008091BC008A7B8093BC0072
:102AB00060E084E10E945A0560E085E10E945A05C9
:102AC0001092AC03C093AE031092AD0361E084E1B9
:102AD0000E945A0561E085E10E945A058091B90083
:102AE0008E7F8093B9008091B9008D7F8093B9006B
:102AF00088E48093B80085E48093BC001093BA000A
:102B0000D093B800DF91CF911F910895CF92DF92BB
:102B1000EF92FF920F931F93CF93DF93EC016A0123
:102B20007B01C114D104E104F10431F4C12C42E170
:102B3000D42E4AE7E42EF12C8FA987FD07C061E06F
:102B40000E94E60561E08FA90E945A0561E088AD08
:102B50000E94E60561E088AD0E945A058DA98111A9
:102B6000A3C040E052E16AE770E0C416D506E6066D
:102B7000F70640F476956795579547958F5F8630B1
:102B8000A1F787E0982F906A969599A38095817018
:102B90008AA31BA21CA21DA21EA21FB7F89480919B
:102BA0006003811127C0E2E3F8E08491E2EDF7E0F1
:102BB0009491E82FF0E0EE0FFF1FED5DF84FA59127
:102BC000B491EC91E92321F461E085E30E945A0578
:102BD00061E085E30E94E6058CB580618CBD8CB513
:102BE00080648CBD61E084E30E94E60561E083E3DC
:102BF0000E94E605809160038F5F809360031FBF92
:102C00008EA987FD21C061E00E94E60561E08EA9E2
:102C10000E945A0564E670E080E090E00E943C0665
:102C200060E08EA90E945A0564E670E080E090E0C2
:102C30000E943C0661E08EA90E945A0568EC70E093
:102C400080E090E00E943C068EA987FF0DC020E046
:102C500050E040E061E0CE010E94580C66E970E06F
:102C600080E090E00E943C0604EB11E0C801019670
:102C7000F8016491662309F463C00E5F1F4FFC01E5
:102C8000F490EF2CE894E7F82E2DA801CE010E94D5
:102C9000580C0E0D111DF7FEE9CF66E970E080E0DB
:102CA00090E00E943C06E2CF0DEF17E0F12C81305E
:102CB000B9F461E08AA50E94E60560E08AA50E9459
:102CC0005A0561E08CA50E94E60560E08CA50E9493
:102CD0005A058BA587FD94CF60E00E94E60590CF52
:102CE000F8018491E82FF0E0EE0FFF1FED51F84F4F
:102CF000859194912F8D38A12817390741F461E00F
:102D00008F2D0E94E60560E08F2D0E945A05F394F6
:102D10000F5F1F4FF6E4FF12E3CF61E08EA50E9424
:102D2000E60561E08EA50E945A058FA587FD68CF54
:102D300061E00E94E60561E08FA50E945A0560CF20
:102D400080EF90E09987888780E491E09B878A876D
:102D5000DF91CF911F910F91FF90EF90DF90CF9077
:102D60000895AF92BF92CF92DF92EF92FF920F93AE
:102D70001F93CF93DF937C0161E872E08BED93E0CA
:102D80000E94AC14E701229610E000E0670186E69D
:102D9000C80ED11CF6018081918180179107F4F152
:102DA000F70160817181072E000C880B990B97FF4A
:102DB0002DC00E948B146EE772E08BED93E00E94B1
:102DC0003B14F60160817181072E000C880B990B72
:102DD00097FF20C00E948B146EE772E08BED93E0AA
:102DE0000E943B140F5F1F4F6A817B8190E080E05F
:102DF00040E10E9445146EE772E08BED93E00E9483
:102E00003B14E881F98122961995C4CF4AE00E94CB
:102E10004514D1CF4AE00E944514DECFDF91CF9117
:102E20001F910F91FF90EF90DF90CF90BF90AF90E8
:102E30000895CF93DF93EC0188E6FB01DE0101905A
:102E40000D928A95E1F768597F4FCE0188599F4FBF
:102E50000E945013FE01EA59FF4F80819181813316
:102E60009105C4F4019691838083FC013196EE0FA5
:102E7000FF1FEC0FFD1F8DEF94E191838083CE0146
:102E80000E94B11669E173E08BED93E0DF91CF9181
:102E90000C94AC1467E972E08BED93E00E94AC14E3
:102EA000EECF4F925F926F927F928F929F92AF92EE
:102EB000BF92CF92DF92EF92FF920F931F93CF9327
:102EC000DF93CDB7DEB7CD56D2400FB6F894DEBF54
:102ED0000FBECDBFE091EB03F091EC0382E0808365
:102EE000E091E703F091E8031082E091E903F091AB
:102EF000EA038FEC80831092F303E091EF03F091EB
:102F0000F00386E08083E091ED03F091EE03808191
:102F100080618083E091ED03F091EE038081886011
:102F20008083E091ED03F091EE03808180688083DF
:102F3000E091ED03F091EE0380818F7D808340E08E
:102F400050E0BA0188E794E00E94861560E078EFCF
:102F500088E794E00E94A6100E94C71B6B017C01C9
:102F600068E774E0CE0101960E94C11352E5852EF8
:102F700052E0952E9A82898264E6462E512C612C6D
:102F8000712CC701B601A30192010E941F1CCA5FE8
:102F9000DD4F79836883C650D2400E94C71BA301CE
:102FA00092010E941F1CC55ADE4F79836883CB555E
:102FB000D140AA24AA94BA2CCF53DE4FB982A8825A
:102FC000C15CD140C12CE12C00E020E040E060E099
:102FD000CE018D539E4F0E945604CD53DE4F9982F1
:102FE0008882C35CD140C459DD4FB982A882CC56D7
:102FF000D24088E6FE01EA5FFD4FDE01A55ABE4FD2
:1030000001900D928A95E1F7BE016F5F7F4FCE016F
:103010008D539E4F0E9450130E94C71BA301920123
:103020000E941F1C7A836983A996BFAEAEAEA99792
:1030300020E040E060E0CE0187599F4F0E94560497
:10304000AB969FAE8EAEAB9766E273E08BED93E0EE
:103050000E94AC1488E6FE01E55AFE4FDE01A05541
:10306000BF4F01900D928A95E1F7BE016D537E4FDF
:10307000CE01885E9E4F0E94C113C85EDE4F9982CA
:103080008882C851D140BE0160557F4FCE01019664
:103090000E94191788E6FE01E55AFE4FDE011196DF
:1030A00001900D928A95E1F7BE016D537E4FCE01DE
:1030B00087599F4F0E94501304E610E0C455DF4F1C
:1030C00019830883CC5AD040CE0101960E94B116D4
:1030D000C255DF4F19830883CE5AD040CE01855A9E
:1030E0009E4F0E94B11688EC90E0C455DF4F998343
:1030F0008883CC5AD040CE0101960E94B11662E47A
:1031000073E08BED93E00E94AC1467E473E08BED09
:1031100093E00E94AC14C654DF4FB982A882CA5B08
:10312000D04069E075E1CE0180559F4F0E94E514C3
:10313000C654DF4F88819981CA5BD04030E020E0DF
:1031400082179307F4F0F901EE0FFF1F40EB50E0F8
:103150004C0F5D1FE40FF51F4081518149505541CF
:1031600069F4A9014817590739F04F5F5F4F628131
:10317000738161937193F6CF0197E2CF2F5F3F4F39
:10318000DFCFC654DF4F99838883CA5BD040CE011E
:1031900080559F4F0E94C01463E075E1CE018055B9
:1031A0009F4F0E94E51469E075E1CE0180559F4F65
:1031B0000E94E514CE0180559F4F0E94C014C35950
:1031C000DD4F0FB6F894DEBF0FBECDBFDF91CF91BC
:1031D0001F910F91FF90EF90DF90CF90BF90AF9035
:1031E0009F908F907F906F905F904F9008951F9267
:1031F0000F920FB60F9211242F933F938F939F93AB
:10320000AF93BF938091D3039091D403A091D50342
:10321000B091D6033091D20323E0230F2D3758F518
:103220000196A11DB11D2093D2038093D3039093E7
:10323000D403A093D503B093D6038091D703909184
:10324000D803A091D903B091DA030196A11DB11D55
:103250008093D7039093D803A093D903B093DA0354
:10326000BF91AF919F918F913F912F910F900FBE82
:103270000F901F90189526E8230F0296A11DB11DEF
:10328000D2CF1F920F920FB60F9211240BB60F924E
:103290002F933F934F935F936F937F938F939F935E
:1032A000AF93BF93EF93FF938BED93E00E94E20601
:1032B000FF91EF91BF91AF919F918F917F916F910E
:1032C0005F914F913F912F910F900BBE0F900FBECA
:1032D0000F901F9018951F920F920FB60F92112406
:1032E0000BB60F922F938F939F93EF93FF93E091E1
:1032F000EB03F091EC038081E091F103F091F20394
:1033000082FD1DC090818091F4038F5F8F732091A7
:10331000F503821741F0E091F403F0E0E552FC4F31
:10332000958F8093F403FF91EF919F918F912F914F
:103330000F900BBE0F900FBE0F901F9018958081BD
:10334000F2CF1F920F920FB60F9211240BB60F926D
:103350002F933F934F935F936F937F938F939F939D
:10336000AF93BF93EF93FF938091B900887F80362E
:1033700009F44DC008F040C0883209F4A7C028F510
:10338000803109F49BC0C8F4882309F4F7C0883061
:1033900009F494C0FF91EF91BF91AF919F918F91EC
:1033A0007F916F915F914F913F912F910F900BBE45
:1033B0000F900FBE0F901F901895883109F486C0AA
:1033C000803241F78093AB0314C0803409F49BC072
:1033D00040F48033B9F38833E9F68093AB0385EC8E
:1033E000AEC0803509F483C0883509F494C08834B0
:1033F00089F60E941115CECF883909F48AC038F5B4
:10340000883729F050F4883611F0803719F683E0B8
:103410008093AC031092AA0355C0883809F479C090
:10342000803919F0803809F0B5CF8091AA03803235
:1034300008F06FC0E091AA0381E08E0F8093AA0389
:103440008091BB00F0E0E657FC4F80833BC0803B9F
:1034500039F0D0F4803A09F477C0883A09F09ACF6D
:1034600084E08093AC031092890310928803F0E00B
:10347000E0E019958091880381110FC081E080936D
:1034800088031092680309C0803C09F4A8CF883CE7
:1034900009F4A5CF883B09F07DCFE091890381E055
:1034A0008E0F80938903F0E0E859FC4F8081809370
:1034B000BB00909189038091880329C08091D1033A
:1034C0008093BB0085EC8093BC0064CF9091D003C7
:1034D0008091CF03981758F5E091D00381E08E0FCB
:1034E0008093D003F0E0E155FC4F8081E9CFE0917B
:1034F000D00381E08E0F8093D0038091BB00F0E079
:10350000E155FC4F80839091D0038091CF039817B1
:10351000C8F285E8D8CFE091D00381E08E0F809388
:10352000D0038091BB00F0E0E155FC4F8083809197
:10353000AE0381115ECF81E08093AD0384EA809376
:10354000BC001092AC0326CF85EC8093BC00109297
:10355000AC038091AA03803230F4E091AA03F0E03A
:10356000E657FC4F10826091AA0370E08AE893E06E
:10357000F0E0E0E019951092AA030CCF1092AB0393
:1035800038CFCF92EF920F93EBEDF3E013821282DC
:1035900088EE93E0A0E0B0E084839583A683B783B0
:1035A00080E492E09183808385EC90E09587848726
:1035B00084EC90E09787868780EC90E0918B808BFD
:1035C00081EC90E0938B828B82EC90E0958B848BE6
:1035D00086EC90E0978B868B118E128E138E148E54
:1035E00082E3C82E94E0E92E04E323E345E36AE096
:1035F00088E794E00E94560482E592E09093790473
:10360000809378040F91EF90CF900895789484B5CB
:10361000826084BD84B5816084BD85B5826085BDCE
:1036200085B5816085BD80916E00816080936E005C
:10363000109281008091810082608093810080914E
:1036400081008160809381008091800081608093FF
:1036500080008091B10084608093B1008091B000BF
:1036600081608093B000809191008260809391008E
:1036700080919100816080939100809190008160A1
:10368000809390008091A10082608093A10080913E
:10369000A10081608093A1008091A000816080934F
:1036A000A0008091210182608093210180912101FD
:1036B00081608093210180912001816080932001AD
:1036C00080917A00846080937A0080917A00826091
:1036D00080937A0080917A00816080937A00809153
:1036E0007A00806880937A001092C1000E9451177E
:1036F0000E947107FDCF8F929F92AF92BF92CF929F
:10370000DF92EF92FF92CF93DF93EC016881798192
:103710008A819B81611571058105910521F464E21F
:1037200079ED8BE597E02DE133EF41E050E00E9429
:103730001F1C49015A019B01AC01A7EAB1E40E9498
:103740003E1C6B017C01ACEEB4EFA50194010E941C
:103750004C1CC60ED71EE81EF91EF7FE06C081E0FF
:10376000C81AD108E10880E8F80AC882D982EA823A
:10377000FB82C701B6019F77DF91CF91FF90EF9059
:10378000DF90CF90BF90AF909F908F9008958F92D1
:103790009F92AF92BF92CF92DF92EF92FF92609191
:1037A00008027091090280910A0290910B02611542
:1037B00071058105910521F464E279ED8BE597E0CF
:1037C0002DE133EF41E050E00E941F1C49015A01F6
:1037D0009B01AC01A7EAB1E40E943E1C6B017C0195
:1037E000ACEEB4EFA50194010E944C1CC60ED71E8E
:1037F000E81EF91EF7FE06C081E0C81AD108E108EC
:1038000080E8F80AC0920802D0920902E0920A0207
:10381000F0920B02C701B6019F77FF90EF90DF9007
:10382000CF90BF90AF909F908F90089560930802C3
:103830007093090280930A0290930B020895052E5B
:1038400097FB1EF400940E94361C57FD07D00E947F
:10385000511C07FC03D04EF40C94361C5095409537
:10386000309521953F4F4F4F5F4F0895909580952C
:10387000709561957F4F8F4F9F4F08950E94731CE5
:10388000A59F900DB49F900DA49F800D911D1124B4
:103890000895B7FF0C943E1C0E943E1C821B930BA4
:1038A0000895A1E21A2EAA1BBB1BFD010DC0AA1F81
:1038B000BB1FEE1FFF1FA217B307E407F50720F099
:1038C000A21BB30BE40BF50B661F771F881F991F14
:1038D0001A9469F760957095809590959B01AC015D
:1038E000BD01CF010895A29FB001B39FC001A39F66
:1038F000700D811D1124911DB29F700D811D112429
:10390000911D0895EE0FFF1F881F8BBF0790F69142
:10391000E02D19940E94731C332312F48A1B9B0B15
:103920000C94941C0E94731CB7FF0895821B930B88
:10393000089581E090E0F8940C949E1CF894FFCFD9
:10394000FFFFFFFFFFFFFFFF01000000000000007E
:10395000FD0E6E0638143714AE08460C140CAB0B73
:103960002A0B6B0BA911B70CC30C9108BC092D0ACB
:103970009E0AA6102E10CF0F0F150F150000000085
:1039800004076E069B065107CC06AA06BE06000079
:103990000000FD0E6E0638143714AE08460C140CE9
:1039A000AB0B2A0B6B0BA911B70CC712BD12BC09CC
:1039B0002D0A9E0AA6102E10CF0F861555120D0A3D
:1039C0000052616973696E6720616C6C2065766571
:1039D0006E74732E2E2E0052656163686564206DCF
:1039E0006178696D756D206E756D626572206F66A8
:1039F000206C697374656E65727321204C697374F1
:103A0000656E6572206D6574686F642077696C6C93
:103A1000206E6F74206265207375627363726962D1
:103A2000656420746F206576656E740052656E64FF
:103A30006572204D6574686F640049276D20746855
:103A400065206E6577206C697374656E6572312EC2
:103A5000004F4C45454545450048656C6C6F205707
:103A60006F726C642100427574746F6E20636F6EA8
:103A70007374727563746F722072656163686564D4
:103A8000210044414A4500417070726F616368696A
:103A90006E67204576656E7420636C6173730000F9
:020000040003F7
:10E000000D9489F10D94B2F10D94B2F10D94B2F129
:10E010000D94B2F10D94B2F10D94B2F10D94B2F1F0
:10E020000D94B2F10D94B2F10D94B2F10D94B2F1E0
:10E030000D94B2F10D94B2F10D94B2F10D94B2F1D0
:10E040000D94B2F10D94B2F10D94B2F10D94B2F1C0
:10E050000D94B2F10D94B2F10D94B2F10D94B2F1B0
:10E060000D94B2F10D94B2F10D94B2F10D94B2F1A0
:10E070000D94B2F10D94B2F10D94B2F10D94B2F190
:10E080000D94B2F10D94B2F10D94B2F10D94B2F180
:10E090000D94B2F10D94B2F10D94B2F10D94B2F170
:10E0A0000D94B2F10D94B2F10D94B2F10D94B2F160
:10E0B0000D94B2F10D94B2F10D94B2F10D94B2F150
:10E0C0000D94B2F10D94B2F10D94B2F10D94B2F140
:10E0D0000D94B2F10D94B2F10D94B2F10D94B2F130
:10E0E0000D94B2F141546D656761323536300041AF
:10E0F000726475696E6F206578706C6F72657220DE
:10E1000073746B3530305632206279204D4C530099
:10E11000426F6F746C6F616465723E004875683F52
:10E1200000436F6D70696C6564206F6E203D200048
:10E130004350552054797065202020203D20005FF9
:10E140005F4156525F415243485F5F3D2000415658
:10E1500052204C696243205665723D20004743437C
:10E160002056657273696F6E203D20004350552024
:10E1700049442020202020203D20004C6F7720663D
:10E18000757365202020203D20004869676820665F
:10E190007573652020203D200045787420667573D6
:10E1A00065202020203D20004C6F636B2066757336
:10E1B000652020203D20004D617220203720323024
:10E1C000313300312E362E3800342E332E350056A2
:10E1D00023202020414444522020206F7020636F70
:10E1E00064652020202020696E73747275637469E1
:10E1F0006F6E2061646472202020496E74657272B3
:10E20000757074006E6F20766563746F7200726A49
:10E210006D702020006A6D70200057686174207056
:10E220006F72743A00506F7274206E6F7420737541
:10E2300070706F72746564004D7573742062652030
:10E2400061206C6574746572002000577269747483
:10E25000696E672045450052656164696E672045B7
:10E26000450045452065727220636E743D00504F35
:10E27000525400303D5A65726F2061646472003FF1
:10E280003D43505520737461747300403D454550C3
:10E29000524F4D207465737400423D426C696E6B41
:10E2A000204C454400453D44756D70204545505215
:10E2B0004F4D00463D44756D7020464C415348001B
:10E2C000483D48656C70004C3D4C69737420492F83
:10E2D0004F20506F72747300513D51756974005234
:10E2E0003D44756D702052414D00563D73686F7707
:10E2F00020696E7465727275707420566563746FF0
:10E30000727300593D506F727420626C696E6B00BD
:10E310002A0011241FBECFEFD1E2DEBFCDBF01E046
:10E320000CBF12E0A0E0B2E0EEE1FDEF03E00BBFB6
:10E3300002C007900D92A030B107D9F712E0A0E01B
:10E34000B2E001C01D92AE30B107E1F70F9460F367
:10E350000D948DFE01E20EBF0FEF0DBF11241FBE05
:10E360000D9460F30D9400F020E030E040ED57E0B4
:10E3700005C0FA013197F1F72F5F3F4F2817390792
:10E38000C0F308959C01260F311DC901A0E0B0E043
:10E390002F5F3F4FABBFFC018791882361F08093D3
:10E3A000C6008091C00086FFFCCF8091C0008064D1
:10E3B0008093C000EACF08958DE08093C6008091DD
:10E3C000C00086FFFCCF8091C00080648093C000B5
:10E3D0008AE08093C6008091C00086FFFCCF8091C8
:10E3E000C00080648093C00008950F94C2F10F9420
:10E3F000DCF10895FC019081992359F09093C600B7
:10E400008091C00086FFFCCF8091C0008064809323
:10E41000C0003196992379F70895282F982F929567
:10E420009F70892F805D8A3308F0895F8093C600D2
:10E430008091C00086FFFCCF8091C00080648093F3
:10E44000C000822F8F70982F905D9A3308F0995FEB
:10E450009093C6008091C00086FFFCCF8091C000E1
:10E4600080648093C00008959C01FB01853691056E
:10E470001CF46330710594F0C90164E670E00F94F8
:10E480002EFE605D7F4F6093C6008091C00086FFC6
:10E49000FCCF8091C00080648093C0002B30310598
:10E4A00014F43297B4F0C90164E670E00F942EFEC4
:10E4B0006AE070E00F942EFE605D7F4F6093C600AF
:10E4C0008091C00086FFFCCF8091C0008064809363
:10E4D000C000C9016AE070E00F942EFEC0968093E0
:10E4E000C6008091C00086FFFCCF8091C000806490
:10E4F0008093C00008951F93182F8EE692EE60E07F
:10E500000F94C2F11093C6008091C00086FFFCCF2B
:10E510008091C00080648093C0000F94DCF11F9153
:10E5200008952F923F924F925F926F927F928F92B7
:10E530009F92AF92BF92CF92DF92EF92FF920F9392
:10E540001F93DF93CF93CDB7DEB762970FB6F894E2
:10E55000DEBF0FBECDBF382E622ECA01DB015C01CB
:10E560006D01772420E2222E2E010894411C511CBB
:10E570008BC081E0A81680E0B80681E0C80680E084
:10E58000D80628F0C601AA27BB270F940DF2BB2797
:10E59000AD2D9C2D8B2D0F940DF28A2D0F940DF225
:10E5A0002092C6008091C00086FFFCCF8091C00001
:10E5B00080648093C0009DE29093C6008091C0006B
:10E5C00086FFFCCF8091C00080648093C0002092C1
:10E5D000C6008091C00086FFFCCF8091C00080649F
:10E5E0008093C00019828601750188249924A1E0D6
:10E5F0003A1651F03A1620F0B2E03B1661F409C029
:10E600000BBFF701779007C0C7010F9477FE782EF4
:10E6100002C0F7017080872D0F940DF22092C60082
:10E620008091C00086FFFCCF8091C0008064809301
:10E63000C000872D8052F401EF70F0708F3520F408
:10E64000E40DF51D708204C0E40DF51D8EE280839B
:10E650000894E11CF11C011D111D0894811C911CE2
:10E6600090E18916910409F0C2CF80E190E0A0E02A
:10E67000B0E0A80EB91ECA1EDB1E198AC2010F9493
:10E68000FAF10F94DCF16A94662009F072CF629679
:10E690000FB6F894DEBF0FBECDBFCF91DF911F91B3
:10E6A0000F91FF90EF90DF90CF90BF90AF909F9031
:10E6B0008F907F906F905F904F903F902F90089534
:10E6C0002F923F924F925F926F927F928F929F9282
:10E6D000AF92BF92CF92DF92EF92FF920F931F9370
:10E6E000DF93CF93CDB7DEB7CD53D1400FB6F894BB
:10E6F000DEBF0FBECDBF01E20EBF0FEF0DBF94B75F
:10E70000F894A89514BE80916000886180936000A1
:10E7100010926000789493FF05C0E0910002F091A0
:10E7200001021995279A2F9A8091C00082608093E8
:10E73000C00080E18093C40088E18093C1000000A4
:10E74000EE24FF24870144E0A42EB12CCC24DD2448
:10E7500024C0C5010197F1F70894E11CF11C011DCB
:10E76000111D21E2E2162EE4F20620E0020720E06D
:10E77000120718F031E0C32ED12CC801B70127ECE5
:10E780003BE140E050E00F9441FE611571058105C9
:10E79000910519F485B1805885B98091C00087FD35
:10E7A00003C0C114D104A9F2A6014F5F5F4FC25E3E
:10E7B000DE4F59834883CE51D140C25EDE4F8881FF
:10E7C0009981CE51D140019711F00D9410FEC05D9A
:10E7D000DE4F19821882C053D14060E0C15DDE4F28
:10E7E0001882CF52D14088249924C35DDE4F19820C
:10E7F0001882CD52D140C05EDE4F188219821A8233
:10E800001B82C052D140CE5CDE4F188219821A8220
:10E810001B82C253D140EE24FF2487010BBFF701B6
:10E8200007911691C45CDE4F19830883CC53D14005
:10E830000D940BFEC25EDE4F28813981CE51D1404E
:10E840002130310509F52091C600C25EDE4F1982E4
:10E850001882CE51D14022C02F5F3F4F4F4F5F4FA4
:10E86000213082E138078AE7480780E0580780F0C6
:10E87000C45CDE4FE881F981CC53D140EF5FFF4F9C
:10E8800019F0EE27FF27099420E030E040E050E047
:10E890008091C00087FFE0CF2091C600C35DDE4FAE
:10E8A00048815981CD52D1404F5F5F4FC35DDE4FEC
:10E8B00059834883CD52D140213209F063C64A3092
:10E8C000510508F05FC60894811C911C53E0851621
:10E8D000910409F059C600E010E018C081E280936D
:10E8E000C6008091C00086FFFCCF8091C00080648C
:10E8F0008093C0002F5F3F4F2931310579F70F9486
:10E90000DCF10F5F1F4F0530110519F020E030E0FA
:10E91000E5CF10920A0210920B0210920C02109294
:10E920000D02109206021092070210920802109235
:10E930000902109202021092030210920402109235
:10E9400005028FEE90EE60E00F94F5F180E191EE1C
:10E9500060E00F94C2F18091C00087FFFCCF9091DE
:10E96000C600903608F09F759032B8F09093C600BC
:10E970008091C00086FFFCCF8091C00080648093AE
:10E98000C000A0E2A093C6008091C00086FFFCCF2B
:10E990008091C00080648093C000983409F4D7C18E
:10E9A0009934B8F4923409F459C1933458F490333B
:10E9B00019F1903308F4E3C59F33A1F1903409F0C5
:10E9C000DEC5BDC0953409F470C1963409F0D7C5D1
:10E9D00098C1923509F42BC2933538F49C3409F46C
:10E9E000F5C1913509F0CBC518C2963509F445C279
:10E9F000993509F0C4C567C483E792EE62E00F94CD
:10EA0000F5F110920602109207021092080210927D
:10EA1000090210920A0210920B0210920C0210923C
:10EA20000D0213C18FE792EE62E00F94F5F18FEEC5
:10EA300090EE60E00F94F5F181E291EE60E00F94CA
:10EA4000C2F187EB91EE60E00F94F5F180E391EE77
:10EA500060E00F94C2F184EE90EE60E00F94F5F167
:10EA60008FE391EE60E00F94C2F186E090E061E008
:10EA700070E00F9434F20F94DCF18DE591EE60E0DC
:10EA80000F94C2F189EC91EE60E00F94F5F18EE401
:10EA900091EE60E00F94C2F183EC91EE60E00F9490
:10EAA000F5F18CE691EE60E00F94C2F18EE10F94E7
:10EAB0000DF288E90F940DF281E00F940DF20F949E
:10EAC000DCF18BE791EE60E00F94C2F119E0E0E039
:10EAD000F0E010935700E4918E2F0F940DF20F94F5
:10EAE000DCF18AE891EE60E00F94C2F1E3E0F0E03F
:10EAF00010935700E4918E2F0F940DF20F94DCF1D8
:10EB000089E991EE60E00F94C2F1E2E0F0E0109349
:10EB10005700E4918E2F0F940DF20F94DCF188EAE8
:10EB200091EE60E00F94C2F1E1E0F0E01093570045
:10EB30001491812F0F940DF20F94DCF107CF8BE825
:10EB400092EE62E00F94F5F18BE492EE60E00F94A8
:10EB5000F5F10F94DCF100E010E019C0C8016F2D51
:10EB60000F947FFEFF2031F489E492EE60E00F9471
:10EB7000C2F10BC0F092C6008091C00086FFFCCFAE
:10EB80008091C00080648093C0000F5F1F4FC80158
:10EB900081519F41A0E0B0E0ABBFFC01F790BAE229
:10EBA000FB1621F0E2E000301E07C1F60F94DCF105
:10EBB0000F94DCF187E592EE60E00F94F5F10F948D
:10EBC000DCF1CC24DD2400E010E01EC0C8010F946D
:10EBD00077FEF82E882331F489E492EE60E00F94FA
:10EBE000C2F10BC08093C6008091C00086FFFCCFAD
:10EBF0008091C00080648093C000FE1419F00894D6
:10EC0000C11CD11C0F5F1F4FC80181519F41A0E063
:10EC1000B0E0ABBFFC01E790FAE2EF1621F022E092
:10EC20000030120799F60F94DCF10F94DCF182E6C4
:10EC300092EE60E00F94C2F1C60161E070E00F94C3
:10EC400034F20F94DCF10F94DCF110920202109276
:10EC50000302109204021092050278CE89E992EE26
:10EC600062E00F94F5F1279A2F9A16C02F9880E052
:10EC700090E0E0EDF7E03197F1F7019684369105E9
:10EC8000C1F72F9A80E090E0E0EDF7E03197F1F7DF
:10EC9000019684369105C1F78091C00087FFE6CFC9
:10ECA0008091C00087FFFCCF64C485EA92EE62E0E9
:10ECB0000F94F5F140910202509103026091040219
:10ECC0007091050281E020E10F9491F2809102029F
:10ECD00090910302A0910402B091050280509F4FD1
:10ECE000AF4FBF4F8093020290930302A0930402A0
:10ECF000B093050280509041A040B04008F426CE69
:10ED0000A4CF83EB92EE62E00F94F5F140910602FE
:10ED100050910702609108027091090280E020E1A1
:10ED20000F9491F28091060290910702A09108023F
:10ED3000B091090280509F4FAF4FBF4F80930602A2
:10ED400090930702A0930802B0930902FFCD80ECD4
:10ED500092EE62E00F94F5F183E792EE60E00F949B
:10ED6000F5F18FE792EE60E00F94F5F18BE892EE0B
:10ED700060E00F94F5F189E992EE60E00F94F5F10F
:10ED800085EA92EE60E00F94F5F183EB92EE60E09D
:10ED90000F94F5F180EC92EE60E00F94F5F187ECC2
:10EDA00092EE60E00F94F5F188ED92EE60E00F9442
:10EDB000F5F18FED92EE60E00F94F5F18AEE92EEB0
:10EDC00060E00F94F5F183E093EEBDCD87EC92EE19
:10EDD00062E00F94F5F181E40F947BF282E40F94EA
:10EDE0007BF283E40F947BF284E40F947BF285E45E
:10EDF0000F947BF286E40F947BF287E40F947BF20E
:10EE000088E40F947BF28AE40F947BF28BE40F94F6
:10EE10007BF28CE40F947BF299CD88ED92EE62E068
:10EE20000F94F5F1772473948824992409C48FED05
:10EE300092EE62E00F94F5F140910A0250910B02BC
:10EE400060910C0270910D0282E020E10F9491F22A
:10EE500080910A0290910B02A0910C02B0910D02D8
:10EE600080509F4FAF4FBF4F80930A0290930B0289
:10EE7000A0930C02B0930D0269CD8AEE92EE62E08F
:10EE80000F94F5F184EE90EE60E00F94F5F18FECC5
:10EE900091EE60E00F94F5F1662477244301CC5D98
:10EEA000DE4F19821882C452D140D401C301B695F5
:10EEB000A79597958795CA5DDE4F88839983AA8326
:10EEC000BB83C652D140CC5DDE4FA881B981C4520C
:10EED000D1401196CC5DDE4FB983A883C452D14096
:10EEE000CD0162E070E00F9434F2B0E2B093C6005E
:10EEF0008091C00086FFFCCF8091C0008064809329
:10EF0000C000EDE2E093C6008091C00086FFFCCF18
:10EF10008091C00080648093C000F0E2F093C6004E
:10EF20008091C00086FFFCCF8091C00080648093F8
:10EF3000C000CA5DDE4FE880F9800A811B81C6529D
:10EF4000D140BB27A12F902F8F2D0F940DF2CA5DBA
:10EF5000DE4F8881C652D1400F940DF2B0E2FB2EF5
:10EF6000F092C6008091C00086FFFCCF8091C00067
:10EF700080648093C0000DE30093C6008091C000C0
:10EF800086FFFCCF8091C00080648093C00010E2B7
:10EF90001093C6008091C00086FFFCCF8091C00016
:10EFA00080648093C0008BBEF3012791C65DDE4F65
:10EFB0002883CA52D140A22EBB24CC24DD2408943D
:10EFC000611C711C811C911C8BBEF3018791282E42
:10EFD0003324442455240894611C711C811C911C09
:10EFE0008BBEF3013791C55DDE4F3883CB52D140E4
:10EFF0000894611C711C811C911C8BBEF30147910C
:10F00000C45DDE4F4883CC52D140ADEFEA2EAFEF66
:10F01000FA2EAFEF0A2FAFEF1A2F6E0C7F1C801E57
:10F02000911E142D032DF22CEE24EA0CFB1C0C1D5A
:10F030001D1D0F940DF220E22093C6008091C000A8
:10F0400086FFFCCF8091C00080648093C000C65DC5
:10F05000DE4F8881CA52D1400F940DF230E23093D6
:10F06000C6008091C00086FFFCCF8091C000806404
:10F070008093C000C45DDE4F8881CC52D1400F9494
:10F080000DF240E24093C6008091C00086FFFCCFA5
:10F090008091C00080648093C000C55DDE4F888190
:10F0A000CB52D1400F940DF250E25093C6008091A4
:10F0B000C00086FFFCCF8091C00080648093C000B8
:10F0C0008FEFE8168FEFF80680E0080780E018075A
:10F0D00031F484E092EE60E00F94C2F1DFC0D80119
:10F0E000C7018070907CA070B0708050904CA040A0
:10F0F000B040D1F52FEF3FE340E050E0E222F322B1
:10F1000004231523CA5DDE4FA880B980CA80DB8046
:10F11000C652D140AE0CBF1CC01ED11EAA0CBB1CD7
:10F12000CC1CDD1C8EE092EE60E00F94C2F1BB2798
:10F13000A12F902F8F2D0F940DF28E2D0F940DF285
:10F1400030E23093C6008091C00086FFFCCF8091F2
:10F15000C00080648093C0004EE34093C60080915D
:10F16000C00086FFFCCF87C08EE09EEFA0E0B0E03D
:10F17000E822F9220A231B239CE0E91694E9F90608
:10F1800090E0090790E0190709F088C0C45DDE4FE0
:10F19000A881CC52D140EA2EFF2400E010E0102FCD
:10F1A0000F2DFE2CEE24C55DDE4FB881CB52D14031
:10F1B000EB0EF11C011D111DD601C501817090706F
:10F1C000A070B070DC0199278827E80EF91E0A1F8D
:10F1D0001B1F20EF30E040E050E0A222B322C42207
:10F1E000D52241E1AA0CBB1CCC1CDD1C4A95D1F7F1
:10F1F000EA0CFB1C0C1D1D1D81E090E0A0E0B0E0BE
:10F20000282239224A225B2235E1220C331C441C7D
:10F21000551C3A95D1F7E20CF31C041D151D57013E
:10F220006801AA0CBB1CCC1CDD1C85E192EE60E0E1
:10F230000F94C2F1C801AA27BB270F940DF2BB2778
:10F24000A12F902F8F2D0F940DF28E2D0F940DF274
:10F2500090E29093C6008091C00086FFFCCF809121
:10F26000C00080648093C000AEE3A093C60080918C
:10F27000C00086FFFCCF8091C00080648093C000F6
:10F28000C601AA27BB270F940DF2BB27AD2D9C2DDD
:10F290008B2D0F940DF28A2D0F940DF20F94DCF14B
:10F2A000CC5DDE4FE881F981C452D140F99709F471
:10F2B0004DCBF4E0EF2EF12C012D112D6E0C7F1CA7
:10F2C000801E911EF2CD83E093EE62E00F94F5F183
:10F2D0008AE192EE60E00F94C2F18091C00087FF56
:10F2E000FCCF1091C6001F751093C6008091C0001E
:10F2F00086FFFCCF8091C00080648093C0000F9493
:10F30000DCF1812F81548A3108F036C1163409F4BA
:10F3100095C0173490F4133409F44EC0143430F40B
:10F320001134F1F0123409F01DC130C0143409F465
:10F3300059C0153409F016C16BC01A3409F4C4C0A1
:10F340001B3438F4173409F48FC0183409F00AC19B
:10F35000A1C01B3409F4D2C01C3409F003C1E8C0B9
:10F360008FEF81B90DC082B1809582B980E090E0C5
:10F37000E0EDF7E03197F1F70196883C9105C1F790
:10F380008091C00087FFEFCF12B8EFC08FEF84B934
:10F390000DC085B1809585B980E090E0E0EDF7E0A3
:10F3A0003197F1F70196883C9105C1F78091C00033
:10F3B00087FFEFCF15B8D9C08FEF87B90DC088B1DF
:10F3C000809588B980E090E0E0EDF7E03197F1F7C3
:10F3D0000196883C9105C1F78091C00087FFEFCF6F
:10F3E00018B8C3C08FEF8AB90DC08BB180958BB9A7
:10F3F00080E090E0E0EDF7E03197F1F70196883C8E
:10F400009105C1F78091C00087FFEFCF1BB8ADC059
:10F410008FEF8DB90DC08EB180958EB980E090E0F0
:10F42000E0EDF7E03197F1F70196883C9105C1F7DF
:10F430008091C00087FFEFCF1EB897C08FEF80BBD1
:10F440000DC081B3809581BB80E090E0E0EDF7E0F6
:10F450003197F1F70196883C9105C1F78091C00082
:10F4600087FFEFCF11BA81C08FEF83BB0DC084B38C
:10F47000809584BB80E090E0E0EDF7E03197F1F714
:10F480000196883C9105C1F78091C00087FFEFCFBE
:10F4900014BA6BC08FEF809301010FC080910201FD
:10F4A00080958093020180E090E0E0EDF7E03197F5
:10F4B000F1F70196883C9105C1F78091C00087FF64
:10F4C000EDCF1092020151C08FEF809304010FC065
:10F4D0008091050180958093050180E090E0E0ED4A
:10F4E000F7E03197F1F70196883C9105C1F78091DB
:10F4F000C00087FFEDCF1092050137C08FEF8093DA
:10F5000007010FC08091080180958093080180E079
:10F5100090E0E0EDF7E03197F1F70196883C910536
:10F52000C1F78091C00087FFEDCF109208011DC088
:10F530008FEF80930A010FC080910B01809580931B
:10F540000B0180E090E0E0EDF7E03197F1F70196F4
:10F55000883C9105C1F78091C00087FFEDCF1092E4
:10F560000B0103C085E292EEEEC98091C00087FFD7
:10F57000FCCF8091C600EAC988E392EEE4C98CE131
:10F5800091EEE1C988249924933011F1943028F444
:10F59000913089F09230B8F408C0953061F195301F
:10F5A000F0F0963009F048C043C02B3109F042C951
:10F5B00091E06BE13FC96227C15DDE4F2883CF52E6
:10F5C000D14092E037C9B22FA0E0622793E032C960
:10F5D000822F90E0A82BB92B622794E02BC92E3004
:10F5E00009F039C3622795E0C05DDE4F19821882A9
:10F5F000C053D1401FC9E1E0F0E0EC0FFD1FC05D3A
:10F60000DE4F08811981C053D140E00FF11F2083E4
:10F610000F5F1F4FC05DDE4F19830883C053D14079
:10F6200062270A171B0709F005C9D80196E002C92D
:10F63000261709F010C303C0973009F0FBC87724E0
:10F640009981933109F412C19431C8F4963009F4C8
:10F65000D8C0973050F4923009F406C1933009F4C1
:10F660006DC0913009F059C253C0913109F477C08F
:10F67000923108F0BBC0903109F04FC2F5C098310B
:10F6800009F487C0993150F4953109F4EFC09531F0
:10F6900008F4C6C1963109F040C2C2C19A3109F4DA
:10F6A0006CC09A3108F491C09B3109F45BC09D3164
:10F6B00009F033C29D81903359F48F81882311F46E
:10F6C0009EE11CC0813011F091E018C098E916C08D
:10F6D000892F807591F0903539F4E0E0F0E089E011
:10F6E0008093570094910AC0983539F4E3E0F0E034
:10F6F00089E080935700949101C090E01A821B82A8
:10F700008D818C831D829E831F8227E030E009C299
:10F710001A8288E08B8381E48C8386E58D8382E581
:10F720008E8389E48F8383E5888780E589878FE5E9
:10F730008A8782E38B872BE030E0F3C18A818139AD
:10F7400041F0823941F0803911F48FE005C080E04A
:10F7500003C082E001C08AE01A828B8344C0772410
:10F76000739482C08D81882311F48EE12CC0813086
:10F7700011F081E028C088E926C01A82E1E0F0E0BB
:10F7800089E08093570084918B831C8224E030E0D1
:10F79000C8C18B81803589F48C81883039F4E2E0EE
:10F7A000F0E089E08093570084910DC0E0E0F0E044
:10F7B00089E080935700849106C0E3E0F0E089E09F
:10F7C0008093570084911A82DFCF8D81836C99E0FA
:10F7D000E1E0F0E0082E90935700E89507B600FCB2
:10F7E000FDCF1A821B8223E030E09BC180EC8A832C
:10F7F000CE5CDE4F188219821A821B82C253D1401E
:10F800008EC18A8190E0A0E0B0E0582F44273327D2
:10F8100022278B8190E0A0E0B0E0DC0199278827C7
:10F82000282B392B4A2B5B2B8D8190E0A0E0B0E098
:10F83000282B392B4A2B5B2B8C8190E0A0E0B0E089
:10F84000BA2FA92F982F8827282B392B4A2B5B2BCF
:10F85000220F331F441F551FC05EDE4F288339839C
:10F860004A835B83C052D1401A8259C13A81C95C34
:10F87000DE4F3883C753D140CA5CDE4F1882C6536F
:10F88000D1408B81C82EDD24CA5CDE4F488159816E
:10F89000C653D140C42AD52A933109F082C0CE5C28
:10F8A000DE4F88819981AA81BB81C253D1408050AB
:10F8B000904CA340B04030F583E0CE5CDE4FE88052
:10F8C000F9800A811B81C253D140F70100935B008C
:10F8D00080935700E89507B600FCFDCFCE5CDE4F65
:10F8E000088119812A813B81C253D14000501F4FAA
:10F8F0002F4F3F4FCE5CDE4F088319832A833B8313
:10F90000C253D140C05EDE4F488159816A817B81FC
:10F91000C052D140DE011B9631E08C9111962C91A2
:10F9200011971296C75CDE4F2883C953D140C85C3B
:10F93000DE4F1882C853D14090E0C85CDE4FE881AA
:10F94000F981C853D1408E2B9F2B0C01FA01609393
:10F950005B0030935700E89511244E5F5F4F6F4F67
:10F960007F4F0EEFE02E0FEFF02ECE0CDF1CC114F8
:10F97000D10499F685E0C05EDE4F088119812A81A5
:10F980003B81C052D140F80120935B008093570027
:10F99000E89507B600FCFDCF81E180935700E8951C
:10F9A00035C0C05EDE4F88819981AA81BB81C0527B
:10F9B000D140B695A795979587957C018601ABE0D8
:10F9C000AA2EB12CAC0EBD1E0BC0D5016D915D01F0
:10F9D000C7010F947FFE0894E11CF11C01501040F8
:10F9E0000115110591F7A60160E070E0440F551F65
:10F9F000661F771FC05EDE4FE880F9800A811B8199
:10FA0000C052D1404E0D5F1D601F711F1A82C05E33
:10FA1000DE4F488359836A837B83C052D1407FC0C5
:10FA2000FA80C55CDE4FF882CB53D140C65CDE4F16
:10FA30001882CA53D1408B81C82EDD24C65CDE4FAC
:10FA400008811981CA53D140C02AD12A1A828981DA
:10FA5000BE016D5F7F4F843121F59601C05EDE4FA0
:10FA6000E880F9800A811B81C052D1400BBFF701A9
:10FA700087919691DB018C9311969C936E5F7F4FDB
:10FA8000D801C7010296A11DB11DC05EDE4F88835B
:10FA90009983AA83BB83C052D14022503040F1F6F3
:10FAA00036C0C05EDE4F288139814A815B81C052F9
:10FAB000D1400894C108D108760100E010E0089414
:10FAC000C11CD11C0894E11CF11C011D111DE20E8A
:10FAD000F31E041F151F21BDBB27A52F942F832FB5
:10FAE00082BD2F5F3F4F4F4F5F4FF89A80B5DB01CC
:10FAF0008D93BD012E153F054007510761F7C05E8C
:10FB0000DE4F288339834A835B83C052D1409601FC
:10FB10002D5F3F4FFB01108204C080EC8A8322E0FE
:10FB200030E08BE18093C6008091C00086FFFCCF5F
:10FB30008091C00080648093C000C15DDE4FF88179
:10FB4000CF52D140F093C6008091C00086FFFCCF19
:10FB50008091C00080648093C000432F3093C60022
:10FB60008091C00086FFFCCF8091C00080648093AC
:10FB7000C000922F2093C6008091C00086FFFCCF6A
:10FB80008091C00080648093C0008EE08093C600A6
:10FB90008091C00086FFFCCF8091C000806480937C
:10FBA000C00065E1C15DDE4FE880CF52D1406E25D7
:10FBB00069276427FE01319610C090819093C6009A
:10FBC0008091C00086FFFCCF31968091C000806498
:10FBD0008093C0006927215030402115310569F715
:10FBE0006093C6008091C00086FFFCCF8091C0006A
:10FBF00080648093C00085B1805885B9772081F4F6
:10FC0000C15DDE4F0881CF52D1400F5FC15DDE4F35
:10FC10000883CF52D14090E0A0E0B0E00D941AF4F8
:10FC200027982F9880E090E020ED37E0F901319798
:10FC3000F1F7019684369105C9F700008091C00064
:10FC40008D7F8093C00081E180935700E895EE2777
:10FC5000FF270994FFCF90E00D941AF497FB092E2B
:10FC600007260AD077FD04D02ED006D000201AF443
:10FC7000709561957F4F0895F6F7909581959F4F08
:10FC80000895A1E21A2EAA1BBB1BFD010DC0AA1FDD
:10FC9000BB1FEE1FFF1FA217B307E407F50720F0F5
:10FCA000A21BB30BE40BF50B661F771F881F991F70
:10FCB0001A9469F760957095809590959B01AC01B9
:10FCC000BD01CF010895AA1BBB1B51E107C0AA1FAC
:10FCD000BB1FA617B70710F0A61BB70B881F991FED
:10FCE0005A95A9F780959095BC01CD010895F99991
:10FCF000FECF92BD81BDF89A992780B50895262F31
:10FD0000F999FECF1FBA92BD81BD20BD0FB6F89400
:0EFD1000FA9AF99A0FBE01960895F894FFCF63
:00000001FF
